{"contracts/PropertySale.sol":{"PropertySale":{"abi":[{"inputs":[{"internalType":"address","name":"_token","type":"address"},{"internalType":"uint256","name":"_pricePerShare","type":"uint256"},{"internalType":"uint256","name":"_totalShares","type":"uint256"},{"internalType":"uint256","name":"_saleDuration","type":"uint256"}],"stateMutability":"nonpayable","type":"constructor"},{"inputs":[{"internalType":"uint256","name":"required","type":"uint256"},{"internalType":"uint256","name":"sent","type":"uint256"}],"name":"InsufficientPayment","type":"error"},{"inputs":[],"name":"InvalidShares","type":"error"},{"inputs":[{"internalType":"uint256","name":"available","type":"uint256"},{"internalType":"uint256","name":"requested","type":"uint256"}],"name":"InventoryUnavailable","type":"error"},{"inputs":[],"name":"SaleEnded","type":"error"},{"inputs":[],"name":"SaleNotActive","type":"error"},{"anonymous":false,"inputs":[{"indexed":true,"internalType":"address","name":"owner","type":"address"},{"indexed":false,"internalType":"uint256","name":"amount","type":"uint256"}],"name":"FundsWithdrawn","type":"event"},{"anonymous":false,"inputs":[{"indexed":true,"internalType":"address","name":"previousOwner","type":"address"},{"indexed":true,"internalType":"address","name":"newOwner","type":"address"}],"name":"OwnershipTransferred","type":"event"},{"anonymous":false,"inputs":[{"indexed":false,"internalType":"uint256","name":"newPrice","type":"uint256"}],"name":"PriceUpdated","type":"event"},{"anonymous":false,"inputs":[{"indexed":false,"internalType":"bool","name":"active","type":"bool"}],"name":"SaleStatusChanged","type":"event"},{"anonymous":false,"inputs":[{"indexed":true,"internalType":"address","name":"buyer","type":"address"},{"indexed":false,"internalType":"uint256","name":"shares","type":"uint256"},{"indexed":false,"internalType":"uint256","name":"amount","type":"uint256"}],"name":"SharesPurchased","type":"event"},{"inputs":[],"name":"HBAR_UNITS","outputs":[{"internalType":"uint256","name":"","type":"uint256"}],"stateMutability":"view","type":"function"},{"inputs":[],"name":"PROPERTY_TOKEN_UNITS","outputs":[{"internalType":"uint256","name":"","type":"uint256"}],"stateMutability":"view","type":"function"},{"inputs":[{"internalType":"uint256","name":"shares","type":"uint256"}],"name":"buyShares","outputs":[],"stateMutability":"payable","type":"function"},{"inputs":[],"name":"isSaleActive","outputs":[{"internalType":"bool","name":"","type":"bool"}],"stateMutability":"view","type":"function"},{"inputs":[],"name":"owner","outputs":[{"internalType":"address","name":"","type":"address"}],"stateMutability":"view","type":"function"},{"inputs":[],"name":"pricePerShare","outputs":[{"internalType":"uint256","name":"","type":"uint256"}],"stateMutability":"view","type":"function"},{"inputs":[],"name":"propertyToken","outputs":[{"internalType":"contract IERC20","name":"","type":"address"}],"stateMutability":"view","type":"function"},{"inputs":[{"internalType":"address","name":"","type":"address"}],"name":"purchased","outputs":[{"internalType":"uint256","name":"","type":"uint256"}],"stateMutability":"view","type":"function"},{"inputs":[{"internalType":"uint256","name":"shares","type":"uint256"}],"name":"quoteCost","outputs":[{"internalType":"uint256","name":"","type":"uint256"}],"stateMutability":"view","type":"function"},{"inputs":[],"name":"remainingShares","outputs":[{"internalType":"uint256","name":"","type":"uint256"}],"stateMutability":"view","type":"function"},{"inputs":[],"name":"renounceOwnership","outputs":[],"stateMutability":"nonpayable","type":"function"},{"inputs":[],"name":"saleActive","outputs":[{"internalType":"bool","name":"","type":"bool"}],"stateMutability":"view","type":"function"},{"inputs":[],"name":"saleEndTime","outputs":[{"internalType":"uint256","name":"","type":"uint256"}],"stateMutability":"view","type":"function"},{"inputs":[],"name":"sharesSold","outputs":[{"internalType":"uint256","name":"","type":"uint256"}],"stateMutability":"view","type":"function"},{"inputs":[],"name":"toggleSale","outputs":[],"stateMutability":"nonpayable","type":"function"},{"inputs":[],"name":"totalShares","outputs":[{"internalType":"uint256","name":"","type":"uint256"}],"stateMutability":"view","type":"function"},{"inputs":[{"internalType":"address","name":"newOwner","type":"address"}],"name":"transferOwnership","outputs":[],"stateMutability":"nonpayable","type":"function"},{"inputs":[{"internalType":"uint256","name":"newPrice","type":"uint256"}],"name":"updatePrice","outputs":[],"stateMutability":"nonpayable","type":"function"},{"inputs":[],"name":"withdrawFunds","outputs":[],"stateMutability":"nonpayable","type":"function"}],"evm":{"bytecode":{"linkReferences":{},"object":"60806040523480156200001157600080fd5b5060405162001042380380620010428339810160408190526200003491620002ba565b6200003f336200026a565b600180556001600160a01b0384166200009f5760405162461bcd60e51b815260206004820152601560248201527f496e76616c696420746f6b656e2061646472657373000000000000000000000060448201526064015b60405180910390fd5b60008311620000f15760405162461bcd60e51b815260206004820152601c60248201527f5072696365206d7573742062652067726561746572207468616e203000000000604482015260640162000096565b600082116200014f5760405162461bcd60e51b815260206004820152602360248201527f546f74616c20736861726573206d75737420626520677265617465722074686160448201526206e20360ec1b606482015260840162000096565b62000163670de0b6b3a76400008362000307565b15620001bd5760405162461bcd60e51b815260206004820152602260248201527f746f74616c536861726573206d75737420626520696e20313820646563696d616044820152616c7360f01b606482015260840162000096565b670de0b6b3a7640000821015620002175760405162461bcd60e51b815260206004820152601e60248201527f746f74616c536861726573206d757374206265203e3d203120746f6b656e0000604482015260640162000096565b600280546001600160a01b0319166001600160a01b038616179055600383905560048290556006805460ff19166001179055801562000260576200025c81426200032a565b6007555b5050505062000352565b600080546001600160a01b038381166001600160a01b0319831681178455604051919092169283917f8be0079c531659141344cd1fd0a4f28419497f9722a3daafe3b4186f6b6457e09190a35050565b60008060008060808587031215620002d157600080fd5b84516001600160a01b0381168114620002e957600080fd5b60208601516040870151606090970151919890975090945092505050565b6000826200032557634e487b7160e01b600052601260045260246000fd5b500690565b808201808211156200034c57634e487b7160e01b600052601160045260246000fd5b92915050565b610ce080620003626000396000f3fe6080604052600436106101145760003560e01c80637d8966e4116100a0578063d1a93d1811610064578063d1a93d18146102c9578063d66c42ec146102dc578063ed338ff1146102f1578063ed804c5f14610307578063f2fde38b1461032357600080fd5b80637d8966e4146102405780638d6cc56d146102555780638da5cb5b1461027557806399530b0614610293578063c4213a2e146102a957600080fd5b8063522fe98e116100e7578063522fe98e146101a7578063564566a8146101d457806362ff27f7146101f957806368428a1b14610211578063715018a61461022b57600080fd5b8063192fc5161461011957806324600fc3146101425780633a98ef391461015957806343ae26951461016f575b600080fd5b34801561012557600080fd5b5061012f60055481565b6040519081526020015b60405180910390f35b34801561014e57600080fd5b50610157610343565b005b34801561016557600080fd5b5061012f60045481565b34801561017b57600080fd5b5060025461018f906001600160a01b031681565b6040516001600160a01b039091168152602001610139565b3480156101b357600080fd5b5061012f6101c2366004610b95565b60086020526000908152604090205481565b3480156101e057600080fd5b506101e961048f565b6040519015158152602001610139565b34801561020557600080fd5b5061012f6305f5e10081565b34801561021d57600080fd5b506006546101e99060ff1681565b34801561023757600080fd5b506101576104d7565b34801561024c57600080fd5b506101576104e9565b34801561026157600080fd5b50610157610270366004610bc5565b61053e565b34801561028157600080fd5b506000546001600160a01b031661018f565b34801561029f57600080fd5b5061012f60035481565b3480156102b557600080fd5b5061012f6102c4366004610bc5565b6105d1565b6101576102d7366004610bc5565b61064c565b3480156102e857600080fd5b5061012f610a05565b3480156102fd57600080fd5b5061012f60075481565b34801561031357600080fd5b5061012f670de0b6b3a764000081565b34801561032f57600080fd5b5061015761033e366004610b95565b610a1c565b61034b610a92565b610353610aec565b478061039d5760405162461bcd60e51b81526020600482015260146024820152734e6f2066756e647320746f20776974686472617760601b60448201526064015b60405180910390fd5b600080546040516001600160a01b039091169083908381818185875af1925050503d80600081146103ea576040519150601f19603f3d011682016040523d82523d6000602084013e6103ef565b606091505b50509050806104345760405162461bcd60e51b815260206004820152601160248201527015da5d1a191c985dd85b0819985a5b1959607a1b6044820152606401610394565b6000546001600160a01b03166001600160a01b03167feaff4b37086828766ad3268786972c0cd24259d4c87a80f9d3963a3c3d999b0d8360405161047a91815260200190565b60405180910390a2505061048d60018055565b565b60065460009060ff166104a25750600090565b60006007541180156104b5575060075442115b156104c05750600090565b600454600554106104d15750600090565b50600190565b6104df610a92565b61048d6000610b45565b6104f1610a92565b6006805460ff8082161560ff1990921682179092556040519116151581527ff3637cdf61687bb87179d2da614bc1f4aa93c3cbf40282ccd0a15ecad9184cc19060200160405180910390a1565b610546610a92565b600081116105965760405162461bcd60e51b815260206004820152601c60248201527f5072696365206d7573742062652067726561746572207468616e2030000000006044820152606401610394565b60038190556040518181527f66cbca4f3c64fecf1dcb9ce094abcf7f68c3450a1d4e3a8e917dd621edb4ebe09060200160405180910390a150565b60008115806105f057506105ed670de0b6b3a764000083610bf4565b15155b1561060e57604051636edcc52360e01b815260040160405180910390fd5b6305f5e100610625670de0b6b3a764000080610c1e565b61062f9190610c31565b60035461063c9084610c44565b6106469190610c5b565b92915050565b610654610aec565b60065460ff166106775760405163b7b2409760e01b815260040160405180910390fd5b8015806106945750610691670de0b6b3a764000082610bf4565b15155b156106b257604051636edcc52360e01b815260040160405180910390fd5b60006007541180156106c5575060075442115b156106e357604051630bd8a3eb60e01b815260040160405180910390fd5b600454816005546106f49190610c1e565b111561072e5760055460045461070a9190610c31565b604051631a9363c960e31b8152600481019190915260248101829052604401610394565b6002546040516370a0823160e01b81523060048201526000916001600160a01b0316906370a0823190602401602060405180830381865afa158015610777573d6000803e3d6000fd5b505050506040513d601f19601f8201168201806040525081019061079b9190610c6f565b9050818110156107c857604051631a9363c960e31b81526004810182905260248101839052604401610394565b60006107dc670de0b6b3a764000080610c44565b6305f5e100600354856107ef9190610c44565b6107f99190610c44565b6108039190610c5b565b90508034101561082f5760405163b99e2ab760e01b815234600482015260248101829052604401610394565b82600560008282546108419190610c1e565b90915550503360009081526008602052604081208054859290610865908490610c1e565b909155505060025460405163a9059cbb60e01b8152336004820152602481018590526001600160a01b039091169063a9059cbb906044016020604051808303816000875af11580156108bb573d6000803e3d6000fd5b505050506040513d601f19601f820116820180604052508101906108df9190610c88565b6109235760405162461bcd60e51b8152602060048201526015602482015274151bdad95b881d1c985b9cd9995c8819985a5b1959605a1b6044820152606401610394565b803411156109bc576000336109388334610c31565b604051600081818185875af1925050503d8060008114610974576040519150601f19603f3d011682016040523d82523d6000602084013e610979565b606091505b50509050806109ba5760405162461bcd60e51b815260206004820152600d60248201526c1499599d5b990819985a5b1959609a1b6044820152606401610394565b505b604080518481526020810183905233917f630b54f21d1c5ae41c4633ad96e8c15ce15665365eded6a38476ffa71c8ace6c910160405180910390a25050610a0260018055565b50565b6000600554600454610a179190610c31565b905090565b610a24610a92565b6001600160a01b038116610a895760405162461bcd60e51b815260206004820152602660248201527f4f776e61626c653a206e6577206f776e657220697320746865207a65726f206160448201526564647265737360d01b6064820152608401610394565b610a0281610b45565b6000546001600160a01b0316331461048d5760405162461bcd60e51b815260206004820181905260248201527f4f776e61626c653a2063616c6c6572206973206e6f7420746865206f776e65726044820152606401610394565b600260015403610b3e5760405162461bcd60e51b815260206004820152601f60248201527f5265656e7472616e637947756172643a207265656e7472616e742063616c6c006044820152606401610394565b6002600155565b600080546001600160a01b038381166001600160a01b0319831681178455604051919092169283917f8be0079c531659141344cd1fd0a4f28419497f9722a3daafe3b4186f6b6457e09190a35050565b600060208284031215610ba757600080fd5b81356001600160a01b0381168114610bbe57600080fd5b9392505050565b600060208284031215610bd757600080fd5b5035919050565b634e487b7160e01b600052601260045260246000fd5b600082610c0357610c03610bde565b500690565b634e487b7160e01b600052601160045260246000fd5b8082018082111561064657610646610c08565b8181038181111561064657610646610c08565b808202811582820484141761064657610646610c08565b600082610c6a57610c6a610bde565b500490565b600060208284031215610c8157600080fd5b5051919050565b600060208284031215610c9a57600080fd5b81518015158114610bbe57600080fdfea2646970667358221220a83784353a9f6fb7e227a80972932767e5e2f68eb4019549721084dc6f790d1364736f6c63430008140033","opcodes":"PUSH1 0x80 PUSH1 0x40 MSTORE CALLVALUE DUP1 ISZERO PUSH3 0x11 JUMPI PUSH1 0x0 DUP1 REVERT JUMPDEST POP PUSH1 0x40 MLOAD PUSH3 0x1042 CODESIZE SUB DUP1 PUSH3 0x1042 DUP4 CODECOPY DUP2 ADD PUSH1 0x40 DUP2 SWAP1 MSTORE PUSH3 0x34 SWAP2 PUSH3 0x2BA JUMP JUMPDEST PUSH3 0x3F CALLER PUSH3 0x26A JUMP JUMPDEST PUSH1 0x1 DUP1 SSTORE PUSH1 0x1 PUSH1 0x1 PUSH1 0xA0 SHL SUB DUP5 AND PUSH3 0x9F JUMPI PUSH1 0x40 MLOAD PUSH3 0x461BCD PUSH1 0xE5 SHL DUP2 MSTORE PUSH1 0x20 PUSH1 0x4 DUP3 ADD MSTORE PUSH1 0x15 PUSH1 0x24 DUP3 ADD MSTORE PUSH32 0x496E76616C696420746F6B656E20616464726573730000000000000000000000 PUSH1 0x44 DUP3 ADD MSTORE PUSH1 0x64 ADD JUMPDEST PUSH1 0x40 MLOAD DUP1 SWAP2 SUB SWAP1 REVERT JUMPDEST PUSH1 0x0 DUP4 GT PUSH3 0xF1 JUMPI PUSH1 0x40 MLOAD PUSH3 0x461BCD PUSH1 0xE5 SHL DUP2 MSTORE PUSH1 0x20 PUSH1 0x4 DUP3 ADD MSTORE PUSH1 0x1C PUSH1 0x24 DUP3 ADD MSTORE PUSH32 0x5072696365206D7573742062652067726561746572207468616E203000000000 PUSH1 0x44 DUP3 ADD MSTORE PUSH1 0x64 ADD PUSH3 0x96 JUMP JUMPDEST PUSH1 0x0 DUP3 GT PUSH3 0x14F JUMPI PUSH1 0x40 MLOAD PUSH3 0x461BCD PUSH1 0xE5 SHL DUP2 MSTORE PUSH1 0x20 PUSH1 0x4 DUP3 ADD MSTORE PUSH1 0x23 PUSH1 0x24 DUP3 ADD MSTORE PUSH32 0x546F74616C20736861726573206D757374206265206772656174657220746861 PUSH1 0x44 DUP3 ADD MSTORE PUSH3 0x6E203 PUSH1 0xEC SHL PUSH1 0x64 DUP3 ADD MSTORE PUSH1 0x84 ADD PUSH3 0x96 JUMP JUMPDEST PUSH3 0x163 PUSH8 0xDE0B6B3A7640000 DUP4 PUSH3 0x307 JUMP JUMPDEST ISZERO PUSH3 0x1BD JUMPI PUSH1 0x40 MLOAD PUSH3 0x461BCD PUSH1 0xE5 SHL DUP2 MSTORE PUSH1 0x20 PUSH1 0x4 DUP3 ADD MSTORE PUSH1 0x22 PUSH1 0x24 DUP3 ADD MSTORE PUSH32 0x746F74616C536861726573206D75737420626520696E20313820646563696D61 PUSH1 0x44 DUP3 ADD MSTORE PUSH2 0x6C73 PUSH1 0xF0 SHL PUSH1 0x64 DUP3 ADD MSTORE PUSH1 0x84 ADD PUSH3 0x96 JUMP JUMPDEST PUSH8 0xDE0B6B3A7640000 DUP3 LT ISZERO PUSH3 0x217 JUMPI PUSH1 0x40 MLOAD PUSH3 0x461BCD PUSH1 0xE5 SHL DUP2 MSTORE PUSH1 0x20 PUSH1 0x4 DUP3 ADD MSTORE PUSH1 0x1E PUSH1 0x24 DUP3 ADD MSTORE PUSH32 0x746F74616C536861726573206D757374206265203E3D203120746F6B656E0000 PUSH1 0x44 DUP3 ADD MSTORE PUSH1 0x64 ADD PUSH3 0x96 JUMP JUMPDEST PUSH1 0x2 DUP1 SLOAD PUSH1 0x1 PUSH1 0x1 PUSH1 0xA0 SHL SUB NOT AND PUSH1 0x1 PUSH1 0x1 PUSH1 0xA0 SHL SUB DUP7 AND OR SWAP1 SSTORE PUSH1 0x3 DUP4 SWAP1 SSTORE PUSH1 0x4 DUP3 SWAP1 SSTORE PUSH1 0x6 DUP1 SLOAD PUSH1 0xFF NOT AND PUSH1 0x1 OR SWAP1 SSTORE DUP1 ISZERO PUSH3 0x260 JUMPI PUSH3 0x25C DUP2 TIMESTAMP PUSH3 0x32A JUMP JUMPDEST PUSH1 0x7 SSTORE JUMPDEST POP POP POP POP PUSH3 0x352 JUMP JUMPDEST PUSH1 0x0 DUP1 SLOAD PUSH1 0x1 PUSH1 0x1 PUSH1 0xA0 SHL SUB DUP4 DUP2 AND PUSH1 0x1 PUSH1 0x1 PUSH1 0xA0 SHL SUB NOT DUP4 AND DUP2 OR DUP5 SSTORE PUSH1 0x40 MLOAD SWAP2 SWAP1 SWAP3 AND SWAP3 DUP4 SWAP2 PUSH32 0x8BE0079C531659141344CD1FD0A4F28419497F9722A3DAAFE3B4186F6B6457E0 SWAP2 SWAP1 LOG3 POP POP JUMP JUMPDEST PUSH1 0x0 DUP1 PUSH1 0x0 DUP1 PUSH1 0x80 DUP6 DUP8 SUB SLT ISZERO PUSH3 0x2D1 JUMPI PUSH1 0x0 DUP1 REVERT JUMPDEST DUP5 MLOAD PUSH1 0x1 PUSH1 0x1 PUSH1 0xA0 SHL SUB DUP2 AND DUP2 EQ PUSH3 0x2E9 JUMPI PUSH1 0x0 DUP1 REVERT JUMPDEST PUSH1 0x20 DUP7 ADD MLOAD PUSH1 0x40 DUP8 ADD MLOAD PUSH1 0x60 SWAP1 SWAP8 ADD MLOAD SWAP2 SWAP9 SWAP1 SWAP8 POP SWAP1 SWAP5 POP SWAP3 POP POP POP JUMP JUMPDEST PUSH1 0x0 DUP3 PUSH3 0x325 JUMPI PUSH4 0x4E487B71 PUSH1 0xE0 SHL PUSH1 0x0 MSTORE PUSH1 0x12 PUSH1 0x4 MSTORE PUSH1 0x24 PUSH1 0x0 REVERT JUMPDEST POP MOD SWAP1 JUMP JUMPDEST DUP1 DUP3 ADD DUP1 DUP3 GT ISZERO PUSH3 0x34C JUMPI PUSH4 0x4E487B71 PUSH1 0xE0 SHL PUSH1 0x0 MSTORE PUSH1 0x11 PUSH1 0x4 MSTORE PUSH1 0x24 PUSH1 0x0 REVERT JUMPDEST SWAP3 SWAP2 POP POP JUMP JUMPDEST PUSH2 0xCE0 DUP1 PUSH3 0x362 PUSH1 0x0 CODECOPY PUSH1 0x0 RETURN INVALID PUSH1 0x80 PUSH1 0x40 MSTORE PUSH1 0x4 CALLDATASIZE LT PUSH2 0x114 JUMPI PUSH1 0x0 CALLDATALOAD PUSH1 0xE0 SHR DUP1 PUSH4 0x7D8966E4 GT PUSH2 0xA0 JUMPI DUP1 PUSH4 0xD1A93D18 GT PUSH2 0x64 JUMPI DUP1 PUSH4 0xD1A93D18 EQ PUSH2 0x2C9 JUMPI DUP1 PUSH4 0xD66C42EC EQ PUSH2 0x2DC JUMPI DUP1 PUSH4 0xED338FF1 EQ PUSH2 0x2F1 JUMPI DUP1 PUSH4 0xED804C5F EQ PUSH2 0x307 JUMPI DUP1 PUSH4 0xF2FDE38B EQ PUSH2 0x323 JUMPI PUSH1 0x0 DUP1 REVERT JUMPDEST DUP1 PUSH4 0x7D8966E4 EQ PUSH2 0x240 JUMPI DUP1 PUSH4 0x8D6CC56D EQ PUSH2 0x255 JUMPI DUP1 PUSH4 0x8DA5CB5B EQ PUSH2 0x275 JUMPI DUP1 PUSH4 0x99530B06 EQ PUSH2 0x293 JUMPI DUP1 PUSH4 0xC4213A2E EQ PUSH2 0x2A9 JUMPI PUSH1 0x0 DUP1 REVERT JUMPDEST DUP1 PUSH4 0x522FE98E GT PUSH2 0xE7 JUMPI DUP1 PUSH4 0x522FE98E EQ PUSH2 0x1A7 JUMPI DUP1 PUSH4 0x564566A8 EQ PUSH2 0x1D4 JUMPI DUP1 PUSH4 0x62FF27F7 EQ PUSH2 0x1F9 JUMPI DUP1 PUSH4 0x68428A1B EQ PUSH2 0x211 JUMPI DUP1 PUSH4 0x715018A6 EQ PUSH2 0x22B JUMPI PUSH1 0x0 DUP1 REVERT JUMPDEST DUP1 PUSH4 0x192FC516 EQ PUSH2 0x119 JUMPI DUP1 PUSH4 0x24600FC3 EQ PUSH2 0x142 JUMPI DUP1 PUSH4 0x3A98EF39 EQ PUSH2 0x159 JUMPI DUP1 PUSH4 0x43AE2695 EQ PUSH2 0x16F JUMPI JUMPDEST PUSH1 0x0 DUP1 REVERT JUMPDEST CALLVALUE DUP1 ISZERO PUSH2 0x125 JUMPI PUSH1 0x0 DUP1 REVERT JUMPDEST POP PUSH2 0x12F PUSH1 0x5 SLOAD DUP2 JUMP JUMPDEST PUSH1 0x40 MLOAD SWAP1 DUP2 MSTORE PUSH1 0x20 ADD JUMPDEST PUSH1 0x40 MLOAD DUP1 SWAP2 SUB SWAP1 RETURN JUMPDEST CALLVALUE DUP1 ISZERO PUSH2 0x14E JUMPI PUSH1 0x0 DUP1 REVERT JUMPDEST POP PUSH2 0x157 PUSH2 0x343 JUMP JUMPDEST STOP JUMPDEST CALLVALUE DUP1 ISZERO PUSH2 0x165 JUMPI PUSH1 0x0 DUP1 REVERT JUMPDEST POP PUSH2 0x12F PUSH1 0x4 SLOAD DUP2 JUMP JUMPDEST CALLVALUE DUP1 ISZERO PUSH2 0x17B JUMPI PUSH1 0x0 DUP1 REVERT JUMPDEST POP PUSH1 0x2 SLOAD PUSH2 0x18F SWAP1 PUSH1 0x1 PUSH1 0x1 PUSH1 0xA0 SHL SUB AND DUP2 JUMP JUMPDEST PUSH1 0x40 MLOAD PUSH1 0x1 PUSH1 0x1 PUSH1 0xA0 SHL SUB SWAP1 SWAP2 AND DUP2 MSTORE PUSH1 0x20 ADD PUSH2 0x139 JUMP JUMPDEST CALLVALUE DUP1 ISZERO PUSH2 0x1B3 JUMPI PUSH1 0x0 DUP1 REVERT JUMPDEST POP PUSH2 0x12F PUSH2 0x1C2 CALLDATASIZE PUSH1 0x4 PUSH2 0xB95 JUMP JUMPDEST PUSH1 0x8 PUSH1 0x20 MSTORE PUSH1 0x0 SWAP1 DUP2 MSTORE PUSH1 0x40 SWAP1 KECCAK256 SLOAD DUP2 JUMP JUMPDEST CALLVALUE DUP1 ISZERO PUSH2 0x1E0 JUMPI PUSH1 0x0 DUP1 REVERT JUMPDEST POP PUSH2 0x1E9 PUSH2 0x48F JUMP JUMPDEST PUSH1 0x40 MLOAD SWAP1 ISZERO ISZERO DUP2 MSTORE PUSH1 0x20 ADD PUSH2 0x139 JUMP JUMPDEST CALLVALUE DUP1 ISZERO PUSH2 0x205 JUMPI PUSH1 0x0 DUP1 REVERT JUMPDEST POP PUSH2 0x12F PUSH4 0x5F5E100 DUP2 JUMP JUMPDEST CALLVALUE DUP1 ISZERO PUSH2 0x21D JUMPI PUSH1 0x0 DUP1 REVERT JUMPDEST POP PUSH1 0x6 SLOAD PUSH2 0x1E9 SWAP1 PUSH1 0xFF AND DUP2 JUMP JUMPDEST CALLVALUE DUP1 ISZERO PUSH2 0x237 JUMPI PUSH1 0x0 DUP1 REVERT JUMPDEST POP PUSH2 0x157 PUSH2 0x4D7 JUMP JUMPDEST CALLVALUE DUP1 ISZERO PUSH2 0x24C JUMPI PUSH1 0x0 DUP1 REVERT JUMPDEST POP PUSH2 0x157 PUSH2 0x4E9 JUMP JUMPDEST CALLVALUE DUP1 ISZERO PUSH2 0x261 JUMPI PUSH1 0x0 DUP1 REVERT JUMPDEST POP PUSH2 0x157 PUSH2 0x270 CALLDATASIZE PUSH1 0x4 PUSH2 0xBC5 JUMP JUMPDEST PUSH2 0x53E JUMP JUMPDEST CALLVALUE DUP1 ISZERO PUSH2 0x281 JUMPI PUSH1 0x0 DUP1 REVERT JUMPDEST POP PUSH1 0x0 SLOAD PUSH1 0x1 PUSH1 0x1 PUSH1 0xA0 SHL SUB AND PUSH2 0x18F JUMP JUMPDEST CALLVALUE DUP1 ISZERO PUSH2 0x29F JUMPI PUSH1 0x0 DUP1 REVERT JUMPDEST POP PUSH2 0x12F PUSH1 0x3 SLOAD DUP2 JUMP JUMPDEST CALLVALUE DUP1 ISZERO PUSH2 0x2B5 JUMPI PUSH1 0x0 DUP1 REVERT JUMPDEST POP PUSH2 0x12F PUSH2 0x2C4 CALLDATASIZE PUSH1 0x4 PUSH2 0xBC5 JUMP JUMPDEST PUSH2 0x5D1 JUMP JUMPDEST PUSH2 0x157 PUSH2 0x2D7 CALLDATASIZE PUSH1 0x4 PUSH2 0xBC5 JUMP JUMPDEST PUSH2 0x64C JUMP JUMPDEST CALLVALUE DUP1 ISZERO PUSH2 0x2E8 JUMPI PUSH1 0x0 DUP1 REVERT JUMPDEST POP PUSH2 0x12F PUSH2 0xA05 JUMP JUMPDEST CALLVALUE DUP1 ISZERO PUSH2 0x2FD JUMPI PUSH1 0x0 DUP1 REVERT JUMPDEST POP PUSH2 0x12F PUSH1 0x7 SLOAD DUP2 JUMP JUMPDEST CALLVALUE DUP1 ISZERO PUSH2 0x313 JUMPI PUSH1 0x0 DUP1 REVERT JUMPDEST POP PUSH2 0x12F PUSH8 0xDE0B6B3A7640000 DUP2 JUMP JUMPDEST CALLVALUE DUP1 ISZERO PUSH2 0x32F JUMPI PUSH1 0x0 DUP1 REVERT JUMPDEST POP PUSH2 0x157 PUSH2 0x33E CALLDATASIZE PUSH1 0x4 PUSH2 0xB95 JUMP JUMPDEST PUSH2 0xA1C JUMP JUMPDEST PUSH2 0x34B PUSH2 0xA92 JUMP JUMPDEST PUSH2 0x353 PUSH2 0xAEC JUMP JUMPDEST SELFBALANCE DUP1 PUSH2 0x39D JUMPI PUSH1 0x40 MLOAD PUSH3 0x461BCD PUSH1 0xE5 SHL DUP2 MSTORE PUSH1 0x20 PUSH1 0x4 DUP3 ADD MSTORE PUSH1 0x14 PUSH1 0x24 DUP3 ADD MSTORE PUSH20 0x4E6F2066756E647320746F207769746864726177 PUSH1 0x60 SHL PUSH1 0x44 DUP3 ADD MSTORE PUSH1 0x64 ADD JUMPDEST PUSH1 0x40 MLOAD DUP1 SWAP2 SUB SWAP1 REVERT JUMPDEST PUSH1 0x0 DUP1 SLOAD PUSH1 0x40 MLOAD PUSH1 0x1 PUSH1 0x1 PUSH1 0xA0 SHL SUB SWAP1 SWAP2 AND SWAP1 DUP4 SWAP1 DUP4 DUP2 DUP2 DUP2 DUP6 DUP8 GAS CALL SWAP3 POP POP POP RETURNDATASIZE DUP1 PUSH1 0x0 DUP2 EQ PUSH2 0x3EA JUMPI PUSH1 0x40 MLOAD SWAP2 POP PUSH1 0x1F NOT PUSH1 0x3F RETURNDATASIZE ADD AND DUP3 ADD PUSH1 0x40 MSTORE RETURNDATASIZE DUP3 MSTORE RETURNDATASIZE PUSH1 0x0 PUSH1 0x20 DUP5 ADD RETURNDATACOPY PUSH2 0x3EF JUMP JUMPDEST PUSH1 0x60 SWAP2 POP JUMPDEST POP POP SWAP1 POP DUP1 PUSH2 0x434 JUMPI PUSH1 0x40 MLOAD PUSH3 0x461BCD PUSH1 0xE5 SHL DUP2 MSTORE PUSH1 0x20 PUSH1 0x4 DUP3 ADD MSTORE PUSH1 0x11 PUSH1 0x24 DUP3 ADD MSTORE PUSH17 0x15DA5D1A191C985DD85B0819985A5B1959 PUSH1 0x7A SHL PUSH1 0x44 DUP3 ADD MSTORE PUSH1 0x64 ADD PUSH2 0x394 JUMP JUMPDEST PUSH1 0x0 SLOAD PUSH1 0x1 PUSH1 0x1 PUSH1 0xA0 SHL SUB AND PUSH1 0x1 PUSH1 0x1 PUSH1 0xA0 SHL SUB AND PUSH32 0xEAFF4B37086828766AD3268786972C0CD24259D4C87A80F9D3963A3C3D999B0D DUP4 PUSH1 0x40 MLOAD PUSH2 0x47A SWAP2 DUP2 MSTORE PUSH1 0x20 ADD SWAP1 JUMP JUMPDEST PUSH1 0x40 MLOAD DUP1 SWAP2 SUB SWAP1 LOG2 POP POP PUSH2 0x48D PUSH1 0x1 DUP1 SSTORE JUMP JUMPDEST JUMP JUMPDEST PUSH1 0x6 SLOAD PUSH1 0x0 SWAP1 PUSH1 0xFF AND PUSH2 0x4A2 JUMPI POP PUSH1 0x0 SWAP1 JUMP JUMPDEST PUSH1 0x0 PUSH1 0x7 SLOAD GT DUP1 ISZERO PUSH2 0x4B5 JUMPI POP PUSH1 0x7 SLOAD TIMESTAMP GT JUMPDEST ISZERO PUSH2 0x4C0 JUMPI POP PUSH1 0x0 SWAP1 JUMP JUMPDEST PUSH1 0x4 SLOAD PUSH1 0x5 SLOAD LT PUSH2 0x4D1 JUMPI POP PUSH1 0x0 SWAP1 JUMP JUMPDEST POP PUSH1 0x1 SWAP1 JUMP JUMPDEST PUSH2 0x4DF PUSH2 0xA92 JUMP JUMPDEST PUSH2 0x48D PUSH1 0x0 PUSH2 0xB45 JUMP JUMPDEST PUSH2 0x4F1 PUSH2 0xA92 JUMP JUMPDEST PUSH1 0x6 DUP1 SLOAD PUSH1 0xFF DUP1 DUP3 AND ISZERO PUSH1 0xFF NOT SWAP1 SWAP3 AND DUP3 OR SWAP1 SWAP3 SSTORE PUSH1 0x40 MLOAD SWAP2 AND ISZERO ISZERO DUP2 MSTORE PUSH32 0xF3637CDF61687BB87179D2DA614BC1F4AA93C3CBF40282CCD0A15ECAD9184CC1 SWAP1 PUSH1 0x20 ADD PUSH1 0x40 MLOAD DUP1 SWAP2 SUB SWAP1 LOG1 JUMP JUMPDEST PUSH2 0x546 PUSH2 0xA92 JUMP JUMPDEST PUSH1 0x0 DUP2 GT PUSH2 0x596 JUMPI PUSH1 0x40 MLOAD PUSH3 0x461BCD PUSH1 0xE5 SHL DUP2 MSTORE PUSH1 0x20 PUSH1 0x4 DUP3 ADD MSTORE PUSH1 0x1C PUSH1 0x24 DUP3 ADD MSTORE PUSH32 0x5072696365206D7573742062652067726561746572207468616E203000000000 PUSH1 0x44 DUP3 ADD MSTORE PUSH1 0x64 ADD PUSH2 0x394 JUMP JUMPDEST PUSH1 0x3 DUP2 SWAP1 SSTORE PUSH1 0x40 MLOAD DUP2 DUP2 MSTORE PUSH32 0x66CBCA4F3C64FECF1DCB9CE094ABCF7F68C3450A1D4E3A8E917DD621EDB4EBE0 SWAP1 PUSH1 0x20 ADD PUSH1 0x40 MLOAD DUP1 SWAP2 SUB SWAP1 LOG1 POP JUMP JUMPDEST PUSH1 0x0 DUP2 ISZERO DUP1 PUSH2 0x5F0 JUMPI POP PUSH2 0x5ED PUSH8 0xDE0B6B3A7640000 DUP4 PUSH2 0xBF4 JUMP JUMPDEST ISZERO ISZERO JUMPDEST ISZERO PUSH2 0x60E JUMPI PUSH1 0x40 MLOAD PUSH4 0x6EDCC523 PUSH1 0xE0 SHL DUP2 MSTORE PUSH1 0x4 ADD PUSH1 0x40 MLOAD DUP1 SWAP2 SUB SWAP1 REVERT JUMPDEST PUSH4 0x5F5E100 PUSH2 0x625 PUSH8 0xDE0B6B3A7640000 DUP1 PUSH2 0xC1E JUMP JUMPDEST PUSH2 0x62F SWAP2 SWAP1 PUSH2 0xC31 JUMP JUMPDEST PUSH1 0x3 SLOAD PUSH2 0x63C SWAP1 DUP5 PUSH2 0xC44 JUMP JUMPDEST PUSH2 0x646 SWAP2 SWAP1 PUSH2 0xC5B JUMP JUMPDEST SWAP3 SWAP2 POP POP JUMP JUMPDEST PUSH2 0x654 PUSH2 0xAEC JUMP JUMPDEST PUSH1 0x6 SLOAD PUSH1 0xFF AND PUSH2 0x677 JUMPI PUSH1 0x40 MLOAD PUSH4 0xB7B24097 PUSH1 0xE0 SHL DUP2 MSTORE PUSH1 0x4 ADD PUSH1 0x40 MLOAD DUP1 SWAP2 SUB SWAP1 REVERT JUMPDEST DUP1 ISZERO DUP1 PUSH2 0x694 JUMPI POP PUSH2 0x691 PUSH8 0xDE0B6B3A7640000 DUP3 PUSH2 0xBF4 JUMP JUMPDEST ISZERO ISZERO JUMPDEST ISZERO PUSH2 0x6B2 JUMPI PUSH1 0x40 MLOAD PUSH4 0x6EDCC523 PUSH1 0xE0 SHL DUP2 MSTORE PUSH1 0x4 ADD PUSH1 0x40 MLOAD DUP1 SWAP2 SUB SWAP1 REVERT JUMPDEST PUSH1 0x0 PUSH1 0x7 SLOAD GT DUP1 ISZERO PUSH2 0x6C5 JUMPI POP PUSH1 0x7 SLOAD TIMESTAMP GT JUMPDEST ISZERO PUSH2 0x6E3 JUMPI PUSH1 0x40 MLOAD PUSH4 0xBD8A3EB PUSH1 0xE0 SHL DUP2 MSTORE PUSH1 0x4 ADD PUSH1 0x40 MLOAD DUP1 SWAP2 SUB SWAP1 REVERT JUMPDEST PUSH1 0x4 SLOAD DUP2 PUSH1 0x5 SLOAD PUSH2 0x6F4 SWAP2 SWAP1 PUSH2 0xC1E JUMP JUMPDEST GT ISZERO PUSH2 0x72E JUMPI PUSH1 0x5 SLOAD PUSH1 0x4 SLOAD PUSH2 0x70A SWAP2 SWAP1 PUSH2 0xC31 JUMP JUMPDEST PUSH1 0x40 MLOAD PUSH4 0x1A9363C9 PUSH1 0xE3 SHL DUP2 MSTORE PUSH1 0x4 DUP2 ADD SWAP2 SWAP1 SWAP2 MSTORE PUSH1 0x24 DUP2 ADD DUP3 SWAP1 MSTORE PUSH1 0x44 ADD PUSH2 0x394 JUMP JUMPDEST PUSH1 0x2 SLOAD PUSH1 0x40 MLOAD PUSH4 0x70A08231 PUSH1 0xE0 SHL DUP2 MSTORE ADDRESS PUSH1 0x4 DUP3 ADD MSTORE PUSH1 0x0 SWAP2 PUSH1 0x1 PUSH1 0x1 PUSH1 0xA0 SHL SUB AND SWAP1 PUSH4 0x70A08231 SWAP1 PUSH1 0x24 ADD PUSH1 0x20 PUSH1 0x40 MLOAD DUP1 DUP4 SUB DUP2 DUP7 GAS STATICCALL ISZERO DUP1 ISZERO PUSH2 0x777 JUMPI RETURNDATASIZE PUSH1 0x0 DUP1 RETURNDATACOPY RETURNDATASIZE PUSH1 0x0 REVERT JUMPDEST POP POP POP POP PUSH1 0x40 MLOAD RETURNDATASIZE PUSH1 0x1F NOT PUSH1 0x1F DUP3 ADD AND DUP3 ADD DUP1 PUSH1 0x40 MSTORE POP DUP2 ADD SWAP1 PUSH2 0x79B SWAP2 SWAP1 PUSH2 0xC6F JUMP JUMPDEST SWAP1 POP DUP2 DUP2 LT ISZERO PUSH2 0x7C8 JUMPI PUSH1 0x40 MLOAD PUSH4 0x1A9363C9 PUSH1 0xE3 SHL DUP2 MSTORE PUSH1 0x4 DUP2 ADD DUP3 SWAP1 MSTORE PUSH1 0x24 DUP2 ADD DUP4 SWAP1 MSTORE PUSH1 0x44 ADD PUSH2 0x394 JUMP JUMPDEST PUSH1 0x0 PUSH2 0x7DC PUSH8 0xDE0B6B3A7640000 DUP1 PUSH2 0xC44 JUMP JUMPDEST PUSH4 0x5F5E100 PUSH1 0x3 SLOAD DUP6 PUSH2 0x7EF SWAP2 SWAP1 PUSH2 0xC44 JUMP JUMPDEST PUSH2 0x7F9 SWAP2 SWAP1 PUSH2 0xC44 JUMP JUMPDEST PUSH2 0x803 SWAP2 SWAP1 PUSH2 0xC5B JUMP JUMPDEST SWAP1 POP DUP1 CALLVALUE LT ISZERO PUSH2 0x82F JUMPI PUSH1 0x40 MLOAD PUSH4 0xB99E2AB7 PUSH1 0xE0 SHL DUP2 MSTORE CALLVALUE PUSH1 0x4 DUP3 ADD MSTORE PUSH1 0x24 DUP2 ADD DUP3 SWAP1 MSTORE PUSH1 0x44 ADD PUSH2 0x394 JUMP JUMPDEST DUP3 PUSH1 0x5 PUSH1 0x0 DUP3 DUP3 SLOAD PUSH2 0x841 SWAP2 SWAP1 PUSH2 0xC1E JUMP JUMPDEST SWAP1 SWAP2 SSTORE POP POP CALLER PUSH1 0x0 SWAP1 DUP2 MSTORE PUSH1 0x8 PUSH1 0x20 MSTORE PUSH1 0x40 DUP2 KECCAK256 DUP1 SLOAD DUP6 SWAP3 SWAP1 PUSH2 0x865 SWAP1 DUP5 SWAP1 PUSH2 0xC1E JUMP JUMPDEST SWAP1 SWAP2 SSTORE POP POP PUSH1 0x2 SLOAD PUSH1 0x40 MLOAD PUSH4 0xA9059CBB PUSH1 0xE0 SHL DUP2 MSTORE CALLER PUSH1 0x4 DUP3 ADD MSTORE PUSH1 0x24 DUP2 ADD DUP6 SWAP1 MSTORE PUSH1 0x1 PUSH1 0x1 PUSH1 0xA0 SHL SUB SWAP1 SWAP2 AND SWAP1 PUSH4 0xA9059CBB SWAP1 PUSH1 0x44 ADD PUSH1 0x20 PUSH1 0x40 MLOAD DUP1 DUP4 SUB DUP2 PUSH1 0x0 DUP8 GAS CALL ISZERO DUP1 ISZERO PUSH2 0x8BB JUMPI RETURNDATASIZE PUSH1 0x0 DUP1 RETURNDATACOPY RETURNDATASIZE PUSH1 0x0 REVERT JUMPDEST POP POP POP POP PUSH1 0x40 MLOAD RETURNDATASIZE PUSH1 0x1F NOT PUSH1 0x1F DUP3 ADD AND DUP3 ADD DUP1 PUSH1 0x40 MSTORE POP DUP2 ADD SWAP1 PUSH2 0x8DF SWAP2 SWAP1 PUSH2 0xC88 JUMP JUMPDEST PUSH2 0x923 JUMPI PUSH1 0x40 MLOAD PUSH3 0x461BCD PUSH1 0xE5 SHL DUP2 MSTORE PUSH1 0x20 PUSH1 0x4 DUP3 ADD MSTORE PUSH1 0x15 PUSH1 0x24 DUP3 ADD MSTORE PUSH21 0x151BDAD95B881D1C985B9CD9995C8819985A5B1959 PUSH1 0x5A SHL PUSH1 0x44 DUP3 ADD MSTORE PUSH1 0x64 ADD PUSH2 0x394 JUMP JUMPDEST DUP1 CALLVALUE GT ISZERO PUSH2 0x9BC JUMPI PUSH1 0x0 CALLER PUSH2 0x938 DUP4 CALLVALUE PUSH2 0xC31 JUMP JUMPDEST PUSH1 0x40 MLOAD PUSH1 0x0 DUP2 DUP2 DUP2 DUP6 DUP8 GAS CALL SWAP3 POP POP POP RETURNDATASIZE DUP1 PUSH1 0x0 DUP2 EQ PUSH2 0x974 JUMPI PUSH1 0x40 MLOAD SWAP2 POP PUSH1 0x1F NOT PUSH1 0x3F RETURNDATASIZE ADD AND DUP3 ADD PUSH1 0x40 MSTORE RETURNDATASIZE DUP3 MSTORE RETURNDATASIZE PUSH1 0x0 PUSH1 0x20 DUP5 ADD RETURNDATACOPY PUSH2 0x979 JUMP JUMPDEST PUSH1 0x60 SWAP2 POP JUMPDEST POP POP SWAP1 POP DUP1 PUSH2 0x9BA JUMPI PUSH1 0x40 MLOAD PUSH3 0x461BCD PUSH1 0xE5 SHL DUP2 MSTORE PUSH1 0x20 PUSH1 0x4 DUP3 ADD MSTORE PUSH1 0xD PUSH1 0x24 DUP3 ADD MSTORE PUSH13 0x1499599D5B990819985A5B1959 PUSH1 0x9A SHL PUSH1 0x44 DUP3 ADD MSTORE PUSH1 0x64 ADD PUSH2 0x394 JUMP JUMPDEST POP JUMPDEST PUSH1 0x40 DUP1 MLOAD DUP5 DUP2 MSTORE PUSH1 0x20 DUP2 ADD DUP4 SWAP1 MSTORE CALLER SWAP2 PUSH32 0x630B54F21D1C5AE41C4633AD96E8C15CE15665365EDED6A38476FFA71C8ACE6C SWAP2 ADD PUSH1 0x40 MLOAD DUP1 SWAP2 SUB SWAP1 LOG2 POP POP PUSH2 0xA02 PUSH1 0x1 DUP1 SSTORE JUMP JUMPDEST POP JUMP JUMPDEST PUSH1 0x0 PUSH1 0x5 SLOAD PUSH1 0x4 SLOAD PUSH2 0xA17 SWAP2 SWAP1 PUSH2 0xC31 JUMP JUMPDEST SWAP1 POP SWAP1 JUMP JUMPDEST PUSH2 0xA24 PUSH2 0xA92 JUMP JUMPDEST PUSH1 0x1 PUSH1 0x1 PUSH1 0xA0 SHL SUB DUP2 AND PUSH2 0xA89 JUMPI PUSH1 0x40 MLOAD PUSH3 0x461BCD PUSH1 0xE5 SHL DUP2 MSTORE PUSH1 0x20 PUSH1 0x4 DUP3 ADD MSTORE PUSH1 0x26 PUSH1 0x24 DUP3 ADD MSTORE PUSH32 0x4F776E61626C653A206E6577206F776E657220697320746865207A65726F2061 PUSH1 0x44 DUP3 ADD MSTORE PUSH6 0x646472657373 PUSH1 0xD0 SHL PUSH1 0x64 DUP3 ADD MSTORE PUSH1 0x84 ADD PUSH2 0x394 JUMP JUMPDEST PUSH2 0xA02 DUP2 PUSH2 0xB45 JUMP JUMPDEST PUSH1 0x0 SLOAD PUSH1 0x1 PUSH1 0x1 PUSH1 0xA0 SHL SUB AND CALLER EQ PUSH2 0x48D JUMPI PUSH1 0x40 MLOAD PUSH3 0x461BCD PUSH1 0xE5 SHL DUP2 MSTORE PUSH1 0x20 PUSH1 0x4 DUP3 ADD DUP2 SWAP1 MSTORE PUSH1 0x24 DUP3 ADD MSTORE PUSH32 0x4F776E61626C653A2063616C6C6572206973206E6F7420746865206F776E6572 PUSH1 0x44 DUP3 ADD MSTORE PUSH1 0x64 ADD PUSH2 0x394 JUMP JUMPDEST PUSH1 0x2 PUSH1 0x1 SLOAD SUB PUSH2 0xB3E JUMPI PUSH1 0x40 MLOAD PUSH3 0x461BCD PUSH1 0xE5 SHL DUP2 MSTORE PUSH1 0x20 PUSH1 0x4 DUP3 ADD MSTORE PUSH1 0x1F PUSH1 0x24 DUP3 ADD MSTORE PUSH32 0x5265656E7472616E637947756172643A207265656E7472616E742063616C6C00 PUSH1 0x44 DUP3 ADD MSTORE PUSH1 0x64 ADD PUSH2 0x394 JUMP JUMPDEST PUSH1 0x2 PUSH1 0x1 SSTORE JUMP JUMPDEST PUSH1 0x0 DUP1 SLOAD PUSH1 0x1 PUSH1 0x1 PUSH1 0xA0 SHL SUB DUP4 DUP2 AND PUSH1 0x1 PUSH1 0x1 PUSH1 0xA0 SHL SUB NOT DUP4 AND DUP2 OR DUP5 SSTORE PUSH1 0x40 MLOAD SWAP2 SWAP1 SWAP3 AND SWAP3 DUP4 SWAP2 PUSH32 0x8BE0079C531659141344CD1FD0A4F28419497F9722A3DAAFE3B4186F6B6457E0 SWAP2 SWAP1 LOG3 POP POP JUMP JUMPDEST PUSH1 0x0 PUSH1 0x20 DUP3 DUP5 SUB SLT ISZERO PUSH2 0xBA7 JUMPI PUSH1 0x0 DUP1 REVERT JUMPDEST DUP2 CALLDATALOAD PUSH1 0x1 PUSH1 0x1 PUSH1 0xA0 SHL SUB DUP2 AND DUP2 EQ PUSH2 0xBBE JUMPI PUSH1 0x0 DUP1 REVERT JUMPDEST SWAP4 SWAP3 POP POP POP JUMP JUMPDEST PUSH1 0x0 PUSH1 0x20 DUP3 DUP5 SUB SLT ISZERO PUSH2 0xBD7 JUMPI PUSH1 0x0 DUP1 REVERT JUMPDEST POP CALLDATALOAD SWAP2 SWAP1 POP JUMP JUMPDEST PUSH4 0x4E487B71 PUSH1 0xE0 SHL PUSH1 0x0 MSTORE PUSH1 0x12 PUSH1 0x4 MSTORE PUSH1 0x24 PUSH1 0x0 REVERT JUMPDEST PUSH1 0x0 DUP3 PUSH2 0xC03 JUMPI PUSH2 0xC03 PUSH2 0xBDE JUMP JUMPDEST POP MOD SWAP1 JUMP JUMPDEST PUSH4 0x4E487B71 PUSH1 0xE0 SHL PUSH1 0x0 MSTORE PUSH1 0x11 PUSH1 0x4 MSTORE PUSH1 0x24 PUSH1 0x0 REVERT JUMPDEST DUP1 DUP3 ADD DUP1 DUP3 GT ISZERO PUSH2 0x646 JUMPI PUSH2 0x646 PUSH2 0xC08 JUMP JUMPDEST DUP2 DUP2 SUB DUP2 DUP2 GT ISZERO PUSH2 0x646 JUMPI PUSH2 0x646 PUSH2 0xC08 JUMP JUMPDEST DUP1 DUP3 MUL DUP2 ISZERO DUP3 DUP3 DIV DUP5 EQ OR PUSH2 0x646 JUMPI PUSH2 0x646 PUSH2 0xC08 JUMP JUMPDEST PUSH1 0x0 DUP3 PUSH2 0xC6A JUMPI PUSH2 0xC6A PUSH2 0xBDE JUMP JUMPDEST POP DIV SWAP1 JUMP JUMPDEST PUSH1 0x0 PUSH1 0x20 DUP3 DUP5 SUB SLT ISZERO PUSH2 0xC81 JUMPI PUSH1 0x0 DUP1 REVERT JUMPDEST POP MLOAD SWAP2 SWAP1 POP JUMP JUMPDEST PUSH1 0x0 PUSH1 0x20 DUP3 DUP5 SUB SLT ISZERO PUSH2 0xC9A JUMPI PUSH1 0x0 DUP1 REVERT JUMPDEST DUP2 MLOAD DUP1 ISZERO ISZERO DUP2 EQ PUSH2 0xBBE JUMPI PUSH1 0x0 DUP1 REVERT INVALID LOG2 PUSH5 0x6970667358 0x22 SLT KECCAK256 0xA8 CALLDATACOPY DUP5 CALLDATALOAD GASPRICE SWAP16 PUSH16 0xB7E227A80972932767E5E2F68EB40195 0x49 PUSH19 0x1084DC6F790D1364736F6C6343000814003300 "},"methodIdentifiers":{"HBAR_UNITS()":"62ff27f7","PROPERTY_TOKEN_UNITS()":"ed804c5f","buyShares(uint256)":"d1a93d18","isSaleActive()":"564566a8","owner()":"8da5cb5b","pricePerShare()":"99530b06","propertyToken()":"43ae2695","purchased(address)":"522fe98e","quoteCost(uint256)":"c4213a2e","remainingShares()":"d66c42ec","renounceOwnership()":"715018a6","saleActive()":"68428a1b","saleEndTime()":"ed338ff1","sharesSold()":"192fc516","toggleSale()":"7d8966e4","totalShares()":"3a98ef39","transferOwnership(address)":"f2fde38b","updatePrice(uint256)":"8d6cc56d","withdrawFunds()":"24600fc3"}}}}}