{"contracts/PropertySale.sol":{"PropertySale":{"abi":[{"inputs":[{"internalType":"address","name":"_token","type":"address"},{"internalType":"uint256","name":"_pricePerShare","type":"uint256"},{"internalType":"uint256","name":"_totalShares","type":"uint256"},{"internalType":"uint256","name":"_saleDuration","type":"uint256"}],"stateMutability":"nonpayable","type":"constructor"},{"inputs":[{"internalType":"uint256","name":"required","type":"uint256"},{"internalType":"uint256","name":"sent","type":"uint256"}],"name":"InsufficientPayment","type":"error"},{"inputs":[],"name":"InvalidShares","type":"error"},{"inputs":[{"internalType":"uint256","name":"available","type":"uint256"},{"internalType":"uint256","name":"requested","type":"uint256"}],"name":"InventoryUnavailable","type":"error"},{"inputs":[],"name":"SaleEnded","type":"error"},{"inputs":[],"name":"SaleNotActive","type":"error"},{"anonymous":false,"inputs":[{"indexed":true,"internalType":"address","name":"owner","type":"address"},{"indexed":false,"internalType":"uint256","name":"amount","type":"uint256"}],"name":"FundsWithdrawn","type":"event"},{"anonymous":false,"inputs":[{"indexed":true,"internalType":"address","name":"previousOwner","type":"address"},{"indexed":true,"internalType":"address","name":"newOwner","type":"address"}],"name":"OwnershipTransferred","type":"event"},{"anonymous":false,"inputs":[{"indexed":false,"internalType":"uint256","name":"newPrice","type":"uint256"}],"name":"PriceUpdated","type":"event"},{"anonymous":false,"inputs":[{"indexed":false,"internalType":"bool","name":"active","type":"bool"}],"name":"SaleStatusChanged","type":"event"},{"anonymous":false,"inputs":[{"indexed":true,"internalType":"address","name":"buyer","type":"address"},{"indexed":false,"internalType":"uint256","name":"shares","type":"uint256"},{"indexed":false,"internalType":"uint256","name":"amount","type":"uint256"}],"name":"SharesPurchased","type":"event"},{"inputs":[{"internalType":"uint256","name":"shares","type":"uint256"}],"name":"buyShares","outputs":[],"stateMutability":"payable","type":"function"},{"inputs":[],"name":"isSaleActive","outputs":[{"internalType":"bool","name":"","type":"bool"}],"stateMutability":"view","type":"function"},{"inputs":[],"name":"owner","outputs":[{"internalType":"address","name":"","type":"address"}],"stateMutability":"view","type":"function"},{"inputs":[],"name":"pricePerShare","outputs":[{"internalType":"uint256","name":"","type":"uint256"}],"stateMutability":"view","type":"function"},{"inputs":[],"name":"propertyToken","outputs":[{"internalType":"contract IERC20","name":"","type":"address"}],"stateMutability":"view","type":"function"},{"inputs":[{"internalType":"address","name":"","type":"address"}],"name":"purchased","outputs":[{"internalType":"uint256","name":"","type":"uint256"}],"stateMutability":"view","type":"function"},{"inputs":[{"internalType":"uint256","name":"shares","type":"uint256"}],"name":"quoteCost","outputs":[{"internalType":"uint256","name":"","type":"uint256"}],"stateMutability":"view","type":"function"},{"inputs":[],"name":"remainingShares","outputs":[{"internalType":"uint256","name":"","type":"uint256"}],"stateMutability":"view","type":"function"},{"inputs":[],"name":"renounceOwnership","outputs":[],"stateMutability":"nonpayable","type":"function"},{"inputs":[],"name":"saleActive","outputs":[{"internalType":"bool","name":"","type":"bool"}],"stateMutability":"view","type":"function"},{"inputs":[],"name":"saleEndTime","outputs":[{"internalType":"uint256","name":"","type":"uint256"}],"stateMutability":"view","type":"function"},{"inputs":[],"name":"sharesSold","outputs":[{"internalType":"uint256","name":"","type":"uint256"}],"stateMutability":"view","type":"function"},{"inputs":[],"name":"toggleSale","outputs":[],"stateMutability":"nonpayable","type":"function"},{"inputs":[],"name":"totalShares","outputs":[{"internalType":"uint256","name":"","type":"uint256"}],"stateMutability":"view","type":"function"},{"inputs":[{"internalType":"address","name":"newOwner","type":"address"}],"name":"transferOwnership","outputs":[],"stateMutability":"nonpayable","type":"function"},{"inputs":[{"internalType":"uint256","name":"newPrice","type":"uint256"}],"name":"updatePrice","outputs":[],"stateMutability":"nonpayable","type":"function"},{"inputs":[],"name":"withdrawFunds","outputs":[],"stateMutability":"nonpayable","type":"function"}],"evm":{"bytecode":{"linkReferences":{},"object":"60806040523480156200001157600080fd5b5060405162000fc938038062000fc98339810160408190526200003491620002ba565b6200003f336200026a565b600180556001600160a01b0384166200009f5760405162461bcd60e51b815260206004820152601560248201527f496e76616c696420746f6b656e2061646472657373000000000000000000000060448201526064015b60405180910390fd5b60008311620000f15760405162461bcd60e51b815260206004820152601c60248201527f5072696365206d7573742062652067726561746572207468616e203000000000604482015260640162000096565b600082116200014f5760405162461bcd60e51b815260206004820152602360248201527f546f74616c20736861726573206d75737420626520677265617465722074686160448201526206e20360ec1b606482015260840162000096565b62000163670de0b6b3a76400008362000307565b15620001bd5760405162461bcd60e51b815260206004820152602260248201527f746f74616c536861726573206d75737420626520696e20313820646563696d616044820152616c7360f01b606482015260840162000096565b670de0b6b3a7640000821015620002175760405162461bcd60e51b815260206004820152601e60248201527f746f74616c536861726573206d757374206265203e3d203120746f6b656e0000604482015260640162000096565b600280546001600160a01b0319166001600160a01b038616179055600383905560048290556006805460ff19166001179055801562000260576200025c81426200032a565b6007555b5050505062000352565b600080546001600160a01b038381166001600160a01b0319831681178455604051919092169283917f8be0079c531659141344cd1fd0a4f28419497f9722a3daafe3b4186f6b6457e09190a35050565b60008060008060808587031215620002d157600080fd5b84516001600160a01b0381168114620002e957600080fd5b60208601516040870151606090970151919890975090945092505050565b6000826200032557634e487b7160e01b600052601260045260246000fd5b500690565b808201808211156200034c57634e487b7160e01b600052601160045260246000fd5b92915050565b610c6780620003626000396000f3fe6080604052600436106100fe5760003560e01c80637d8966e411610095578063c4213a2e11610064578063c4213a2e1461027b578063d1a93d181461029b578063d66c42ec146102ae578063ed338ff1146102c3578063f2fde38b146102d957600080fd5b80637d8966e4146102125780638d6cc56d146102275780638da5cb5b1461024757806399530b061461026557600080fd5b8063522fe98e116100d1578063522fe98e14610191578063564566a8146101be57806368428a1b146101e3578063715018a6146101fd57600080fd5b8063192fc5161461010357806324600fc31461012c5780633a98ef391461014357806343ae269514610159575b600080fd5b34801561010f57600080fd5b5061011960055481565b6040519081526020015b60405180910390f35b34801561013857600080fd5b506101416102f9565b005b34801561014f57600080fd5b5061011960045481565b34801561016557600080fd5b50600254610179906001600160a01b031681565b6040516001600160a01b039091168152602001610123565b34801561019d57600080fd5b506101196101ac366004610b1c565b60086020526000908152604090205481565b3480156101ca57600080fd5b506101d3610445565b6040519015158152602001610123565b3480156101ef57600080fd5b506006546101d39060ff1681565b34801561020957600080fd5b5061014161048d565b34801561021e57600080fd5b5061014161049f565b34801561023357600080fd5b50610141610242366004610b4c565b6104f4565b34801561025357600080fd5b506000546001600160a01b0316610179565b34801561027157600080fd5b5061011960035481565b34801561028757600080fd5b50610119610296366004610b4c565b610587565b6101416102a9366004610b4c565b6105eb565b3480156102ba57600080fd5b5061011961098c565b3480156102cf57600080fd5b5061011960075481565b3480156102e557600080fd5b506101416102f4366004610b1c565b6109a3565b610301610a19565b610309610a73565b47806103535760405162461bcd60e51b81526020600482015260146024820152734e6f2066756e647320746f20776974686472617760601b60448201526064015b60405180910390fd5b600080546040516001600160a01b039091169083908381818185875af1925050503d80600081146103a0576040519150601f19603f3d011682016040523d82523d6000602084013e6103a5565b606091505b50509050806103ea5760405162461bcd60e51b815260206004820152601160248201527015da5d1a191c985dd85b0819985a5b1959607a1b604482015260640161034a565b6000546001600160a01b03166001600160a01b03167feaff4b37086828766ad3268786972c0cd24259d4c87a80f9d3963a3c3d999b0d8360405161043091815260200190565b60405180910390a2505061044360018055565b565b60065460009060ff166104585750600090565b600060075411801561046b575060075442115b156104765750600090565b600454600554106104875750600090565b50600190565b610495610a19565b6104436000610acc565b6104a7610a19565b6006805460ff8082161560ff1990921682179092556040519116151581527ff3637cdf61687bb87179d2da614bc1f4aa93c3cbf40282ccd0a15ecad9184cc19060200160405180910390a1565b6104fc610a19565b6000811161054c5760405162461bcd60e51b815260206004820152601c60248201527f5072696365206d7573742062652067726561746572207468616e203000000000604482015260640161034a565b60038190556040518181527f66cbca4f3c64fecf1dcb9ce094abcf7f68c3450a1d4e3a8e917dd621edb4ebe09060200160405180910390a150565b60008115806105a657506105a3670de0b6b3a764000083610b7b565b15155b156105c457604051636edcc52360e01b815260040160405180910390fd5b670de0b6b3a7640000600354836105db9190610ba5565b6105e59190610bbc565b92915050565b6105f3610a73565b60065460ff166106165760405163b7b2409760e01b815260040160405180910390fd5b8015806106335750610630670de0b6b3a764000082610b7b565b15155b1561065157604051636edcc52360e01b815260040160405180910390fd5b6000600754118015610664575060075442115b1561068257604051630bd8a3eb60e01b815260040160405180910390fd5b600454816005546106939190610bd0565b11156106cd576005546004546106a99190610be3565b604051631a9363c960e31b815260048101919091526024810182905260440161034a565b6002546040516370a0823160e01b81523060048201526000916001600160a01b0316906370a0823190602401602060405180830381865afa158015610716573d6000803e3d6000fd5b505050506040513d601f19601f8201168201806040525081019061073a9190610bf6565b90508181101561076757604051631a9363c960e31b8152600481018290526024810183905260440161034a565b6000670de0b6b3a7640000600354846107809190610ba5565b61078a9190610bbc565b9050803410156107b65760405163b99e2ab760e01b81526004810182905234602482015260440161034a565b82600560008282546107c89190610bd0565b909155505033600090815260086020526040812080548592906107ec908490610bd0565b909155505060025460405163a9059cbb60e01b8152336004820152602481018590526001600160a01b039091169063a9059cbb906044016020604051808303816000875af1158015610842573d6000803e3d6000fd5b505050506040513d601f19601f820116820180604052508101906108669190610c0f565b6108aa5760405162461bcd60e51b8152602060048201526015602482015274151bdad95b881d1c985b9cd9995c8819985a5b1959605a1b604482015260640161034a565b80341115610943576000336108bf8334610be3565b604051600081818185875af1925050503d80600081146108fb576040519150601f19603f3d011682016040523d82523d6000602084013e610900565b606091505b50509050806109415760405162461bcd60e51b815260206004820152600d60248201526c1499599d5b990819985a5b1959609a1b604482015260640161034a565b505b604080518481526020810183905233917f630b54f21d1c5ae41c4633ad96e8c15ce15665365eded6a38476ffa71c8ace6c910160405180910390a2505061098960018055565b50565b600060055460045461099e9190610be3565b905090565b6109ab610a19565b6001600160a01b038116610a105760405162461bcd60e51b815260206004820152602660248201527f4f776e61626c653a206e6577206f776e657220697320746865207a65726f206160448201526564647265737360d01b606482015260840161034a565b61098981610acc565b6000546001600160a01b031633146104435760405162461bcd60e51b815260206004820181905260248201527f4f776e61626c653a2063616c6c6572206973206e6f7420746865206f776e6572604482015260640161034a565b600260015403610ac55760405162461bcd60e51b815260206004820152601f60248201527f5265656e7472616e637947756172643a207265656e7472616e742063616c6c00604482015260640161034a565b6002600155565b600080546001600160a01b038381166001600160a01b0319831681178455604051919092169283917f8be0079c531659141344cd1fd0a4f28419497f9722a3daafe3b4186f6b6457e09190a35050565b600060208284031215610b2e57600080fd5b81356001600160a01b0381168114610b4557600080fd5b9392505050565b600060208284031215610b5e57600080fd5b5035919050565b634e487b7160e01b600052601260045260246000fd5b600082610b8a57610b8a610b65565b500690565b634e487b7160e01b600052601160045260246000fd5b80820281158282048414176105e5576105e5610b8f565b600082610bcb57610bcb610b65565b500490565b808201808211156105e5576105e5610b8f565b818103818111156105e5576105e5610b8f565b600060208284031215610c0857600080fd5b5051919050565b600060208284031215610c2157600080fd5b81518015158114610b4557600080fdfea26469706673582212200f868ddeb674a38368a05adabe043d3ad22bcfb6b9c8d2365885e8e90c41ab2264736f6c63430008140033","opcodes":"PUSH1 0x80 PUSH1 0x40 MSTORE CALLVALUE DUP1 ISZERO PUSH3 0x11 JUMPI PUSH1 0x0 DUP1 REVERT JUMPDEST POP PUSH1 0x40 MLOAD PUSH3 0xFC9 CODESIZE SUB DUP1 PUSH3 0xFC9 DUP4 CODECOPY DUP2 ADD PUSH1 0x40 DUP2 SWAP1 MSTORE PUSH3 0x34 SWAP2 PUSH3 0x2BA JUMP JUMPDEST PUSH3 0x3F CALLER PUSH3 0x26A JUMP JUMPDEST PUSH1 0x1 DUP1 SSTORE PUSH1 0x1 PUSH1 0x1 PUSH1 0xA0 SHL SUB DUP5 AND PUSH3 0x9F JUMPI PUSH1 0x40 MLOAD PUSH3 0x461BCD PUSH1 0xE5 SHL DUP2 MSTORE PUSH1 0x20 PUSH1 0x4 DUP3 ADD MSTORE PUSH1 0x15 PUSH1 0x24 DUP3 ADD MSTORE PUSH32 0x496E76616C696420746F6B656E20616464726573730000000000000000000000 PUSH1 0x44 DUP3 ADD MSTORE PUSH1 0x64 ADD JUMPDEST PUSH1 0x40 MLOAD DUP1 SWAP2 SUB SWAP1 REVERT JUMPDEST PUSH1 0x0 DUP4 GT PUSH3 0xF1 JUMPI PUSH1 0x40 MLOAD PUSH3 0x461BCD PUSH1 0xE5 SHL DUP2 MSTORE PUSH1 0x20 PUSH1 0x4 DUP3 ADD MSTORE PUSH1 0x1C PUSH1 0x24 DUP3 ADD MSTORE PUSH32 0x5072696365206D7573742062652067726561746572207468616E203000000000 PUSH1 0x44 DUP3 ADD MSTORE PUSH1 0x64 ADD PUSH3 0x96 JUMP JUMPDEST PUSH1 0x0 DUP3 GT PUSH3 0x14F JUMPI PUSH1 0x40 MLOAD PUSH3 0x461BCD PUSH1 0xE5 SHL DUP2 MSTORE PUSH1 0x20 PUSH1 0x4 DUP3 ADD MSTORE PUSH1 0x23 PUSH1 0x24 DUP3 ADD MSTORE PUSH32 0x546F74616C20736861726573206D757374206265206772656174657220746861 PUSH1 0x44 DUP3 ADD MSTORE PUSH3 0x6E203 PUSH1 0xEC SHL PUSH1 0x64 DUP3 ADD MSTORE PUSH1 0x84 ADD PUSH3 0x96 JUMP JUMPDEST PUSH3 0x163 PUSH8 0xDE0B6B3A7640000 DUP4 PUSH3 0x307 JUMP JUMPDEST ISZERO PUSH3 0x1BD JUMPI PUSH1 0x40 MLOAD PUSH3 0x461BCD PUSH1 0xE5 SHL DUP2 MSTORE PUSH1 0x20 PUSH1 0x4 DUP3 ADD MSTORE PUSH1 0x22 PUSH1 0x24 DUP3 ADD MSTORE PUSH32 0x746F74616C536861726573206D75737420626520696E20313820646563696D61 PUSH1 0x44 DUP3 ADD MSTORE PUSH2 0x6C73 PUSH1 0xF0 SHL PUSH1 0x64 DUP3 ADD MSTORE PUSH1 0x84 ADD PUSH3 0x96 JUMP JUMPDEST PUSH8 0xDE0B6B3A7640000 DUP3 LT ISZERO PUSH3 0x217 JUMPI PUSH1 0x40 MLOAD PUSH3 0x461BCD PUSH1 0xE5 SHL DUP2 MSTORE PUSH1 0x20 PUSH1 0x4 DUP3 ADD MSTORE PUSH1 0x1E PUSH1 0x24 DUP3 ADD MSTORE PUSH32 0x746F74616C536861726573206D757374206265203E3D203120746F6B656E0000 PUSH1 0x44 DUP3 ADD MSTORE PUSH1 0x64 ADD PUSH3 0x96 JUMP JUMPDEST PUSH1 0x2 DUP1 SLOAD PUSH1 0x1 PUSH1 0x1 PUSH1 0xA0 SHL SUB NOT AND PUSH1 0x1 PUSH1 0x1 PUSH1 0xA0 SHL SUB DUP7 AND OR SWAP1 SSTORE PUSH1 0x3 DUP4 SWAP1 SSTORE PUSH1 0x4 DUP3 SWAP1 SSTORE PUSH1 0x6 DUP1 SLOAD PUSH1 0xFF NOT AND PUSH1 0x1 OR SWAP1 SSTORE DUP1 ISZERO PUSH3 0x260 JUMPI PUSH3 0x25C DUP2 TIMESTAMP PUSH3 0x32A JUMP JUMPDEST PUSH1 0x7 SSTORE JUMPDEST POP POP POP POP PUSH3 0x352 JUMP JUMPDEST PUSH1 0x0 DUP1 SLOAD PUSH1 0x1 PUSH1 0x1 PUSH1 0xA0 SHL SUB DUP4 DUP2 AND PUSH1 0x1 PUSH1 0x1 PUSH1 0xA0 SHL SUB NOT DUP4 AND DUP2 OR DUP5 SSTORE PUSH1 0x40 MLOAD SWAP2 SWAP1 SWAP3 AND SWAP3 DUP4 SWAP2 PUSH32 0x8BE0079C531659141344CD1FD0A4F28419497F9722A3DAAFE3B4186F6B6457E0 SWAP2 SWAP1 LOG3 POP POP JUMP JUMPDEST PUSH1 0x0 DUP1 PUSH1 0x0 DUP1 PUSH1 0x80 DUP6 DUP8 SUB SLT ISZERO PUSH3 0x2D1 JUMPI PUSH1 0x0 DUP1 REVERT JUMPDEST DUP5 MLOAD PUSH1 0x1 PUSH1 0x1 PUSH1 0xA0 SHL SUB DUP2 AND DUP2 EQ PUSH3 0x2E9 JUMPI PUSH1 0x0 DUP1 REVERT JUMPDEST PUSH1 0x20 DUP7 ADD MLOAD PUSH1 0x40 DUP8 ADD MLOAD PUSH1 0x60 SWAP1 SWAP8 ADD MLOAD SWAP2 SWAP9 SWAP1 SWAP8 POP SWAP1 SWAP5 POP SWAP3 POP POP POP JUMP JUMPDEST PUSH1 0x0 DUP3 PUSH3 0x325 JUMPI PUSH4 0x4E487B71 PUSH1 0xE0 SHL PUSH1 0x0 MSTORE PUSH1 0x12 PUSH1 0x4 MSTORE PUSH1 0x24 PUSH1 0x0 REVERT JUMPDEST POP MOD SWAP1 JUMP JUMPDEST DUP1 DUP3 ADD DUP1 DUP3 GT ISZERO PUSH3 0x34C JUMPI PUSH4 0x4E487B71 PUSH1 0xE0 SHL PUSH1 0x0 MSTORE PUSH1 0x11 PUSH1 0x4 MSTORE PUSH1 0x24 PUSH1 0x0 REVERT JUMPDEST SWAP3 SWAP2 POP POP JUMP JUMPDEST PUSH2 0xC67 DUP1 PUSH3 0x362 PUSH1 0x0 CODECOPY PUSH1 0x0 RETURN INVALID PUSH1 0x80 PUSH1 0x40 MSTORE PUSH1 0x4 CALLDATASIZE LT PUSH2 0xFE JUMPI PUSH1 0x0 CALLDATALOAD PUSH1 0xE0 SHR DUP1 PUSH4 0x7D8966E4 GT PUSH2 0x95 JUMPI DUP1 PUSH4 0xC4213A2E GT PUSH2 0x64 JUMPI DUP1 PUSH4 0xC4213A2E EQ PUSH2 0x27B JUMPI DUP1 PUSH4 0xD1A93D18 EQ PUSH2 0x29B JUMPI DUP1 PUSH4 0xD66C42EC EQ PUSH2 0x2AE JUMPI DUP1 PUSH4 0xED338FF1 EQ PUSH2 0x2C3 JUMPI DUP1 PUSH4 0xF2FDE38B EQ PUSH2 0x2D9 JUMPI PUSH1 0x0 DUP1 REVERT JUMPDEST DUP1 PUSH4 0x7D8966E4 EQ PUSH2 0x212 JUMPI DUP1 PUSH4 0x8D6CC56D EQ PUSH2 0x227 JUMPI DUP1 PUSH4 0x8DA5CB5B EQ PUSH2 0x247 JUMPI DUP1 PUSH4 0x99530B06 EQ PUSH2 0x265 JUMPI PUSH1 0x0 DUP1 REVERT JUMPDEST DUP1 PUSH4 0x522FE98E GT PUSH2 0xD1 JUMPI DUP1 PUSH4 0x522FE98E EQ PUSH2 0x191 JUMPI DUP1 PUSH4 0x564566A8 EQ PUSH2 0x1BE JUMPI DUP1 PUSH4 0x68428A1B EQ PUSH2 0x1E3 JUMPI DUP1 PUSH4 0x715018A6 EQ PUSH2 0x1FD JUMPI PUSH1 0x0 DUP1 REVERT JUMPDEST DUP1 PUSH4 0x192FC516 EQ PUSH2 0x103 JUMPI DUP1 PUSH4 0x24600FC3 EQ PUSH2 0x12C JUMPI DUP1 PUSH4 0x3A98EF39 EQ PUSH2 0x143 JUMPI DUP1 PUSH4 0x43AE2695 EQ PUSH2 0x159 JUMPI JUMPDEST PUSH1 0x0 DUP1 REVERT JUMPDEST CALLVALUE DUP1 ISZERO PUSH2 0x10F JUMPI PUSH1 0x0 DUP1 REVERT JUMPDEST POP PUSH2 0x119 PUSH1 0x5 SLOAD DUP2 JUMP JUMPDEST PUSH1 0x40 MLOAD SWAP1 DUP2 MSTORE PUSH1 0x20 ADD JUMPDEST PUSH1 0x40 MLOAD DUP1 SWAP2 SUB SWAP1 RETURN JUMPDEST CALLVALUE DUP1 ISZERO PUSH2 0x138 JUMPI PUSH1 0x0 DUP1 REVERT JUMPDEST POP PUSH2 0x141 PUSH2 0x2F9 JUMP JUMPDEST STOP JUMPDEST CALLVALUE DUP1 ISZERO PUSH2 0x14F JUMPI PUSH1 0x0 DUP1 REVERT JUMPDEST POP PUSH2 0x119 PUSH1 0x4 SLOAD DUP2 JUMP JUMPDEST CALLVALUE DUP1 ISZERO PUSH2 0x165 JUMPI PUSH1 0x0 DUP1 REVERT JUMPDEST POP PUSH1 0x2 SLOAD PUSH2 0x179 SWAP1 PUSH1 0x1 PUSH1 0x1 PUSH1 0xA0 SHL SUB AND DUP2 JUMP JUMPDEST PUSH1 0x40 MLOAD PUSH1 0x1 PUSH1 0x1 PUSH1 0xA0 SHL SUB SWAP1 SWAP2 AND DUP2 MSTORE PUSH1 0x20 ADD PUSH2 0x123 JUMP JUMPDEST CALLVALUE DUP1 ISZERO PUSH2 0x19D JUMPI PUSH1 0x0 DUP1 REVERT JUMPDEST POP PUSH2 0x119 PUSH2 0x1AC CALLDATASIZE PUSH1 0x4 PUSH2 0xB1C JUMP JUMPDEST PUSH1 0x8 PUSH1 0x20 MSTORE PUSH1 0x0 SWAP1 DUP2 MSTORE PUSH1 0x40 SWAP1 KECCAK256 SLOAD DUP2 JUMP JUMPDEST CALLVALUE DUP1 ISZERO PUSH2 0x1CA JUMPI PUSH1 0x0 DUP1 REVERT JUMPDEST POP PUSH2 0x1D3 PUSH2 0x445 JUMP JUMPDEST PUSH1 0x40 MLOAD SWAP1 ISZERO ISZERO DUP2 MSTORE PUSH1 0x20 ADD PUSH2 0x123 JUMP JUMPDEST CALLVALUE DUP1 ISZERO PUSH2 0x1EF JUMPI PUSH1 0x0 DUP1 REVERT JUMPDEST POP PUSH1 0x6 SLOAD PUSH2 0x1D3 SWAP1 PUSH1 0xFF AND DUP2 JUMP JUMPDEST CALLVALUE DUP1 ISZERO PUSH2 0x209 JUMPI PUSH1 0x0 DUP1 REVERT JUMPDEST POP PUSH2 0x141 PUSH2 0x48D JUMP JUMPDEST CALLVALUE DUP1 ISZERO PUSH2 0x21E JUMPI PUSH1 0x0 DUP1 REVERT JUMPDEST POP PUSH2 0x141 PUSH2 0x49F JUMP JUMPDEST CALLVALUE DUP1 ISZERO PUSH2 0x233 JUMPI PUSH1 0x0 DUP1 REVERT JUMPDEST POP PUSH2 0x141 PUSH2 0x242 CALLDATASIZE PUSH1 0x4 PUSH2 0xB4C JUMP JUMPDEST PUSH2 0x4F4 JUMP JUMPDEST CALLVALUE DUP1 ISZERO PUSH2 0x253 JUMPI PUSH1 0x0 DUP1 REVERT JUMPDEST POP PUSH1 0x0 SLOAD PUSH1 0x1 PUSH1 0x1 PUSH1 0xA0 SHL SUB AND PUSH2 0x179 JUMP JUMPDEST CALLVALUE DUP1 ISZERO PUSH2 0x271 JUMPI PUSH1 0x0 DUP1 REVERT JUMPDEST POP PUSH2 0x119 PUSH1 0x3 SLOAD DUP2 JUMP JUMPDEST CALLVALUE DUP1 ISZERO PUSH2 0x287 JUMPI PUSH1 0x0 DUP1 REVERT JUMPDEST POP PUSH2 0x119 PUSH2 0x296 CALLDATASIZE PUSH1 0x4 PUSH2 0xB4C JUMP JUMPDEST PUSH2 0x587 JUMP JUMPDEST PUSH2 0x141 PUSH2 0x2A9 CALLDATASIZE PUSH1 0x4 PUSH2 0xB4C JUMP JUMPDEST PUSH2 0x5EB JUMP JUMPDEST CALLVALUE DUP1 ISZERO PUSH2 0x2BA JUMPI PUSH1 0x0 DUP1 REVERT JUMPDEST POP PUSH2 0x119 PUSH2 0x98C JUMP JUMPDEST CALLVALUE DUP1 ISZERO PUSH2 0x2CF JUMPI PUSH1 0x0 DUP1 REVERT JUMPDEST POP PUSH2 0x119 PUSH1 0x7 SLOAD DUP2 JUMP JUMPDEST CALLVALUE DUP1 ISZERO PUSH2 0x2E5 JUMPI PUSH1 0x0 DUP1 REVERT JUMPDEST POP PUSH2 0x141 PUSH2 0x2F4 CALLDATASIZE PUSH1 0x4 PUSH2 0xB1C JUMP JUMPDEST PUSH2 0x9A3 JUMP JUMPDEST PUSH2 0x301 PUSH2 0xA19 JUMP JUMPDEST PUSH2 0x309 PUSH2 0xA73 JUMP JUMPDEST SELFBALANCE DUP1 PUSH2 0x353 JUMPI PUSH1 0x40 MLOAD PUSH3 0x461BCD PUSH1 0xE5 SHL DUP2 MSTORE PUSH1 0x20 PUSH1 0x4 DUP3 ADD MSTORE PUSH1 0x14 PUSH1 0x24 DUP3 ADD MSTORE PUSH20 0x4E6F2066756E647320746F207769746864726177 PUSH1 0x60 SHL PUSH1 0x44 DUP3 ADD MSTORE PUSH1 0x64 ADD JUMPDEST PUSH1 0x40 MLOAD DUP1 SWAP2 SUB SWAP1 REVERT JUMPDEST PUSH1 0x0 DUP1 SLOAD PUSH1 0x40 MLOAD PUSH1 0x1 PUSH1 0x1 PUSH1 0xA0 SHL SUB SWAP1 SWAP2 AND SWAP1 DUP4 SWAP1 DUP4 DUP2 DUP2 DUP2 DUP6 DUP8 GAS CALL SWAP3 POP POP POP RETURNDATASIZE DUP1 PUSH1 0x0 DUP2 EQ PUSH2 0x3A0 JUMPI PUSH1 0x40 MLOAD SWAP2 POP PUSH1 0x1F NOT PUSH1 0x3F RETURNDATASIZE ADD AND DUP3 ADD PUSH1 0x40 MSTORE RETURNDATASIZE DUP3 MSTORE RETURNDATASIZE PUSH1 0x0 PUSH1 0x20 DUP5 ADD RETURNDATACOPY PUSH2 0x3A5 JUMP JUMPDEST PUSH1 0x60 SWAP2 POP JUMPDEST POP POP SWAP1 POP DUP1 PUSH2 0x3EA JUMPI PUSH1 0x40 MLOAD PUSH3 0x461BCD PUSH1 0xE5 SHL DUP2 MSTORE PUSH1 0x20 PUSH1 0x4 DUP3 ADD MSTORE PUSH1 0x11 PUSH1 0x24 DUP3 ADD MSTORE PUSH17 0x15DA5D1A191C985DD85B0819985A5B1959 PUSH1 0x7A SHL PUSH1 0x44 DUP3 ADD MSTORE PUSH1 0x64 ADD PUSH2 0x34A JUMP JUMPDEST PUSH1 0x0 SLOAD PUSH1 0x1 PUSH1 0x1 PUSH1 0xA0 SHL SUB AND PUSH1 0x1 PUSH1 0x1 PUSH1 0xA0 SHL SUB AND PUSH32 0xEAFF4B37086828766AD3268786972C0CD24259D4C87A80F9D3963A3C3D999B0D DUP4 PUSH1 0x40 MLOAD PUSH2 0x430 SWAP2 DUP2 MSTORE PUSH1 0x20 ADD SWAP1 JUMP JUMPDEST PUSH1 0x40 MLOAD DUP1 SWAP2 SUB SWAP1 LOG2 POP POP PUSH2 0x443 PUSH1 0x1 DUP1 SSTORE JUMP JUMPDEST JUMP JUMPDEST PUSH1 0x6 SLOAD PUSH1 0x0 SWAP1 PUSH1 0xFF AND PUSH2 0x458 JUMPI POP PUSH1 0x0 SWAP1 JUMP JUMPDEST PUSH1 0x0 PUSH1 0x7 SLOAD GT DUP1 ISZERO PUSH2 0x46B JUMPI POP PUSH1 0x7 SLOAD TIMESTAMP GT JUMPDEST ISZERO PUSH2 0x476 JUMPI POP PUSH1 0x0 SWAP1 JUMP JUMPDEST PUSH1 0x4 SLOAD PUSH1 0x5 SLOAD LT PUSH2 0x487 JUMPI POP PUSH1 0x0 SWAP1 JUMP JUMPDEST POP PUSH1 0x1 SWAP1 JUMP JUMPDEST PUSH2 0x495 PUSH2 0xA19 JUMP JUMPDEST PUSH2 0x443 PUSH1 0x0 PUSH2 0xACC JUMP JUMPDEST PUSH2 0x4A7 PUSH2 0xA19 JUMP JUMPDEST PUSH1 0x6 DUP1 SLOAD PUSH1 0xFF DUP1 DUP3 AND ISZERO PUSH1 0xFF NOT SWAP1 SWAP3 AND DUP3 OR SWAP1 SWAP3 SSTORE PUSH1 0x40 MLOAD SWAP2 AND ISZERO ISZERO DUP2 MSTORE PUSH32 0xF3637CDF61687BB87179D2DA614BC1F4AA93C3CBF40282CCD0A15ECAD9184CC1 SWAP1 PUSH1 0x20 ADD PUSH1 0x40 MLOAD DUP1 SWAP2 SUB SWAP1 LOG1 JUMP JUMPDEST PUSH2 0x4FC PUSH2 0xA19 JUMP JUMPDEST PUSH1 0x0 DUP2 GT PUSH2 0x54C JUMPI PUSH1 0x40 MLOAD PUSH3 0x461BCD PUSH1 0xE5 SHL DUP2 MSTORE PUSH1 0x20 PUSH1 0x4 DUP3 ADD MSTORE PUSH1 0x1C PUSH1 0x24 DUP3 ADD MSTORE PUSH32 0x5072696365206D7573742062652067726561746572207468616E203000000000 PUSH1 0x44 DUP3 ADD MSTORE PUSH1 0x64 ADD PUSH2 0x34A JUMP JUMPDEST PUSH1 0x3 DUP2 SWAP1 SSTORE PUSH1 0x40 MLOAD DUP2 DUP2 MSTORE PUSH32 0x66CBCA4F3C64FECF1DCB9CE094ABCF7F68C3450A1D4E3A8E917DD621EDB4EBE0 SWAP1 PUSH1 0x20 ADD PUSH1 0x40 MLOAD DUP1 SWAP2 SUB SWAP1 LOG1 POP JUMP JUMPDEST PUSH1 0x0 DUP2 ISZERO DUP1 PUSH2 0x5A6 JUMPI POP PUSH2 0x5A3 PUSH8 0xDE0B6B3A7640000 DUP4 PUSH2 0xB7B JUMP JUMPDEST ISZERO ISZERO JUMPDEST ISZERO PUSH2 0x5C4 JUMPI PUSH1 0x40 MLOAD PUSH4 0x6EDCC523 PUSH1 0xE0 SHL DUP2 MSTORE PUSH1 0x4 ADD PUSH1 0x40 MLOAD DUP1 SWAP2 SUB SWAP1 REVERT JUMPDEST PUSH8 0xDE0B6B3A7640000 PUSH1 0x3 SLOAD DUP4 PUSH2 0x5DB SWAP2 SWAP1 PUSH2 0xBA5 JUMP JUMPDEST PUSH2 0x5E5 SWAP2 SWAP1 PUSH2 0xBBC JUMP JUMPDEST SWAP3 SWAP2 POP POP JUMP JUMPDEST PUSH2 0x5F3 PUSH2 0xA73 JUMP JUMPDEST PUSH1 0x6 SLOAD PUSH1 0xFF AND PUSH2 0x616 JUMPI PUSH1 0x40 MLOAD PUSH4 0xB7B24097 PUSH1 0xE0 SHL DUP2 MSTORE PUSH1 0x4 ADD PUSH1 0x40 MLOAD DUP1 SWAP2 SUB SWAP1 REVERT JUMPDEST DUP1 ISZERO DUP1 PUSH2 0x633 JUMPI POP PUSH2 0x630 PUSH8 0xDE0B6B3A7640000 DUP3 PUSH2 0xB7B JUMP JUMPDEST ISZERO ISZERO JUMPDEST ISZERO PUSH2 0x651 JUMPI PUSH1 0x40 MLOAD PUSH4 0x6EDCC523 PUSH1 0xE0 SHL DUP2 MSTORE PUSH1 0x4 ADD PUSH1 0x40 MLOAD DUP1 SWAP2 SUB SWAP1 REVERT JUMPDEST PUSH1 0x0 PUSH1 0x7 SLOAD GT DUP1 ISZERO PUSH2 0x664 JUMPI POP PUSH1 0x7 SLOAD TIMESTAMP GT JUMPDEST ISZERO PUSH2 0x682 JUMPI PUSH1 0x40 MLOAD PUSH4 0xBD8A3EB PUSH1 0xE0 SHL DUP2 MSTORE PUSH1 0x4 ADD PUSH1 0x40 MLOAD DUP1 SWAP2 SUB SWAP1 REVERT JUMPDEST PUSH1 0x4 SLOAD DUP2 PUSH1 0x5 SLOAD PUSH2 0x693 SWAP2 SWAP1 PUSH2 0xBD0 JUMP JUMPDEST GT ISZERO PUSH2 0x6CD JUMPI PUSH1 0x5 SLOAD PUSH1 0x4 SLOAD PUSH2 0x6A9 SWAP2 SWAP1 PUSH2 0xBE3 JUMP JUMPDEST PUSH1 0x40 MLOAD PUSH4 0x1A9363C9 PUSH1 0xE3 SHL DUP2 MSTORE PUSH1 0x4 DUP2 ADD SWAP2 SWAP1 SWAP2 MSTORE PUSH1 0x24 DUP2 ADD DUP3 SWAP1 MSTORE PUSH1 0x44 ADD PUSH2 0x34A JUMP JUMPDEST PUSH1 0x2 SLOAD PUSH1 0x40 MLOAD PUSH4 0x70A08231 PUSH1 0xE0 SHL DUP2 MSTORE ADDRESS PUSH1 0x4 DUP3 ADD MSTORE PUSH1 0x0 SWAP2 PUSH1 0x1 PUSH1 0x1 PUSH1 0xA0 SHL SUB AND SWAP1 PUSH4 0x70A08231 SWAP1 PUSH1 0x24 ADD PUSH1 0x20 PUSH1 0x40 MLOAD DUP1 DUP4 SUB DUP2 DUP7 GAS STATICCALL ISZERO DUP1 ISZERO PUSH2 0x716 JUMPI RETURNDATASIZE PUSH1 0x0 DUP1 RETURNDATACOPY RETURNDATASIZE PUSH1 0x0 REVERT JUMPDEST POP POP POP POP PUSH1 0x40 MLOAD RETURNDATASIZE PUSH1 0x1F NOT PUSH1 0x1F DUP3 ADD AND DUP3 ADD DUP1 PUSH1 0x40 MSTORE POP DUP2 ADD SWAP1 PUSH2 0x73A SWAP2 SWAP1 PUSH2 0xBF6 JUMP JUMPDEST SWAP1 POP DUP2 DUP2 LT ISZERO PUSH2 0x767 JUMPI PUSH1 0x40 MLOAD PUSH4 0x1A9363C9 PUSH1 0xE3 SHL DUP2 MSTORE PUSH1 0x4 DUP2 ADD DUP3 SWAP1 MSTORE PUSH1 0x24 DUP2 ADD DUP4 SWAP1 MSTORE PUSH1 0x44 ADD PUSH2 0x34A JUMP JUMPDEST PUSH1 0x0 PUSH8 0xDE0B6B3A7640000 PUSH1 0x3 SLOAD DUP5 PUSH2 0x780 SWAP2 SWAP1 PUSH2 0xBA5 JUMP JUMPDEST PUSH2 0x78A SWAP2 SWAP1 PUSH2 0xBBC JUMP JUMPDEST SWAP1 POP DUP1 CALLVALUE LT ISZERO PUSH2 0x7B6 JUMPI PUSH1 0x40 MLOAD PUSH4 0xB99E2AB7 PUSH1 0xE0 SHL DUP2 MSTORE PUSH1 0x4 DUP2 ADD DUP3 SWAP1 MSTORE CALLVALUE PUSH1 0x24 DUP3 ADD MSTORE PUSH1 0x44 ADD PUSH2 0x34A JUMP JUMPDEST DUP3 PUSH1 0x5 PUSH1 0x0 DUP3 DUP3 SLOAD PUSH2 0x7C8 SWAP2 SWAP1 PUSH2 0xBD0 JUMP JUMPDEST SWAP1 SWAP2 SSTORE POP POP CALLER PUSH1 0x0 SWAP1 DUP2 MSTORE PUSH1 0x8 PUSH1 0x20 MSTORE PUSH1 0x40 DUP2 KECCAK256 DUP1 SLOAD DUP6 SWAP3 SWAP1 PUSH2 0x7EC SWAP1 DUP5 SWAP1 PUSH2 0xBD0 JUMP JUMPDEST SWAP1 SWAP2 SSTORE POP POP PUSH1 0x2 SLOAD PUSH1 0x40 MLOAD PUSH4 0xA9059CBB PUSH1 0xE0 SHL DUP2 MSTORE CALLER PUSH1 0x4 DUP3 ADD MSTORE PUSH1 0x24 DUP2 ADD DUP6 SWAP1 MSTORE PUSH1 0x1 PUSH1 0x1 PUSH1 0xA0 SHL SUB SWAP1 SWAP2 AND SWAP1 PUSH4 0xA9059CBB SWAP1 PUSH1 0x44 ADD PUSH1 0x20 PUSH1 0x40 MLOAD DUP1 DUP4 SUB DUP2 PUSH1 0x0 DUP8 GAS CALL ISZERO DUP1 ISZERO PUSH2 0x842 JUMPI RETURNDATASIZE PUSH1 0x0 DUP1 RETURNDATACOPY RETURNDATASIZE PUSH1 0x0 REVERT JUMPDEST POP POP POP POP PUSH1 0x40 MLOAD RETURNDATASIZE PUSH1 0x1F NOT PUSH1 0x1F DUP3 ADD AND DUP3 ADD DUP1 PUSH1 0x40 MSTORE POP DUP2 ADD SWAP1 PUSH2 0x866 SWAP2 SWAP1 PUSH2 0xC0F JUMP JUMPDEST PUSH2 0x8AA JUMPI PUSH1 0x40 MLOAD PUSH3 0x461BCD PUSH1 0xE5 SHL DUP2 MSTORE PUSH1 0x20 PUSH1 0x4 DUP3 ADD MSTORE PUSH1 0x15 PUSH1 0x24 DUP3 ADD MSTORE PUSH21 0x151BDAD95B881D1C985B9CD9995C8819985A5B1959 PUSH1 0x5A SHL PUSH1 0x44 DUP3 ADD MSTORE PUSH1 0x64 ADD PUSH2 0x34A JUMP JUMPDEST DUP1 CALLVALUE GT ISZERO PUSH2 0x943 JUMPI PUSH1 0x0 CALLER PUSH2 0x8BF DUP4 CALLVALUE PUSH2 0xBE3 JUMP JUMPDEST PUSH1 0x40 MLOAD PUSH1 0x0 DUP2 DUP2 DUP2 DUP6 DUP8 GAS CALL SWAP3 POP POP POP RETURNDATASIZE DUP1 PUSH1 0x0 DUP2 EQ PUSH2 0x8FB JUMPI PUSH1 0x40 MLOAD SWAP2 POP PUSH1 0x1F NOT PUSH1 0x3F RETURNDATASIZE ADD AND DUP3 ADD PUSH1 0x40 MSTORE RETURNDATASIZE DUP3 MSTORE RETURNDATASIZE PUSH1 0x0 PUSH1 0x20 DUP5 ADD RETURNDATACOPY PUSH2 0x900 JUMP JUMPDEST PUSH1 0x60 SWAP2 POP JUMPDEST POP POP SWAP1 POP DUP1 PUSH2 0x941 JUMPI PUSH1 0x40 MLOAD PUSH3 0x461BCD PUSH1 0xE5 SHL DUP2 MSTORE PUSH1 0x20 PUSH1 0x4 DUP3 ADD MSTORE PUSH1 0xD PUSH1 0x24 DUP3 ADD MSTORE PUSH13 0x1499599D5B990819985A5B1959 PUSH1 0x9A SHL PUSH1 0x44 DUP3 ADD MSTORE PUSH1 0x64 ADD PUSH2 0x34A JUMP JUMPDEST POP JUMPDEST PUSH1 0x40 DUP1 MLOAD DUP5 DUP2 MSTORE PUSH1 0x20 DUP2 ADD DUP4 SWAP1 MSTORE CALLER SWAP2 PUSH32 0x630B54F21D1C5AE41C4633AD96E8C15CE15665365EDED6A38476FFA71C8ACE6C SWAP2 ADD PUSH1 0x40 MLOAD DUP1 SWAP2 SUB SWAP1 LOG2 POP POP PUSH2 0x989 PUSH1 0x1 DUP1 SSTORE JUMP JUMPDEST POP JUMP JUMPDEST PUSH1 0x0 PUSH1 0x5 SLOAD PUSH1 0x4 SLOAD PUSH2 0x99E SWAP2 SWAP1 PUSH2 0xBE3 JUMP JUMPDEST SWAP1 POP SWAP1 JUMP JUMPDEST PUSH2 0x9AB PUSH2 0xA19 JUMP JUMPDEST PUSH1 0x1 PUSH1 0x1 PUSH1 0xA0 SHL SUB DUP2 AND PUSH2 0xA10 JUMPI PUSH1 0x40 MLOAD PUSH3 0x461BCD PUSH1 0xE5 SHL DUP2 MSTORE PUSH1 0x20 PUSH1 0x4 DUP3 ADD MSTORE PUSH1 0x26 PUSH1 0x24 DUP3 ADD MSTORE PUSH32 0x4F776E61626C653A206E6577206F776E657220697320746865207A65726F2061 PUSH1 0x44 DUP3 ADD MSTORE PUSH6 0x646472657373 PUSH1 0xD0 SHL PUSH1 0x64 DUP3 ADD MSTORE PUSH1 0x84 ADD PUSH2 0x34A JUMP JUMPDEST PUSH2 0x989 DUP2 PUSH2 0xACC JUMP JUMPDEST PUSH1 0x0 SLOAD PUSH1 0x1 PUSH1 0x1 PUSH1 0xA0 SHL SUB AND CALLER EQ PUSH2 0x443 JUMPI PUSH1 0x40 MLOAD PUSH3 0x461BCD PUSH1 0xE5 SHL DUP2 MSTORE PUSH1 0x20 PUSH1 0x4 DUP3 ADD DUP2 SWAP1 MSTORE PUSH1 0x24 DUP3 ADD MSTORE PUSH32 0x4F776E61626C653A2063616C6C6572206973206E6F7420746865206F776E6572 PUSH1 0x44 DUP3 ADD MSTORE PUSH1 0x64 ADD PUSH2 0x34A JUMP JUMPDEST PUSH1 0x2 PUSH1 0x1 SLOAD SUB PUSH2 0xAC5 JUMPI PUSH1 0x40 MLOAD PUSH3 0x461BCD PUSH1 0xE5 SHL DUP2 MSTORE PUSH1 0x20 PUSH1 0x4 DUP3 ADD MSTORE PUSH1 0x1F PUSH1 0x24 DUP3 ADD MSTORE PUSH32 0x5265656E7472616E637947756172643A207265656E7472616E742063616C6C00 PUSH1 0x44 DUP3 ADD MSTORE PUSH1 0x64 ADD PUSH2 0x34A JUMP JUMPDEST PUSH1 0x2 PUSH1 0x1 SSTORE JUMP JUMPDEST PUSH1 0x0 DUP1 SLOAD PUSH1 0x1 PUSH1 0x1 PUSH1 0xA0 SHL SUB DUP4 DUP2 AND PUSH1 0x1 PUSH1 0x1 PUSH1 0xA0 SHL SUB NOT DUP4 AND DUP2 OR DUP5 SSTORE PUSH1 0x40 MLOAD SWAP2 SWAP1 SWAP3 AND SWAP3 DUP4 SWAP2 PUSH32 0x8BE0079C531659141344CD1FD0A4F28419497F9722A3DAAFE3B4186F6B6457E0 SWAP2 SWAP1 LOG3 POP POP JUMP JUMPDEST PUSH1 0x0 PUSH1 0x20 DUP3 DUP5 SUB SLT ISZERO PUSH2 0xB2E JUMPI PUSH1 0x0 DUP1 REVERT JUMPDEST DUP2 CALLDATALOAD PUSH1 0x1 PUSH1 0x1 PUSH1 0xA0 SHL SUB DUP2 AND DUP2 EQ PUSH2 0xB45 JUMPI PUSH1 0x0 DUP1 REVERT JUMPDEST SWAP4 SWAP3 POP POP POP JUMP JUMPDEST PUSH1 0x0 PUSH1 0x20 DUP3 DUP5 SUB SLT ISZERO PUSH2 0xB5E JUMPI PUSH1 0x0 DUP1 REVERT JUMPDEST POP CALLDATALOAD SWAP2 SWAP1 POP JUMP JUMPDEST PUSH4 0x4E487B71 PUSH1 0xE0 SHL PUSH1 0x0 MSTORE PUSH1 0x12 PUSH1 0x4 MSTORE PUSH1 0x24 PUSH1 0x0 REVERT JUMPDEST PUSH1 0x0 DUP3 PUSH2 0xB8A JUMPI PUSH2 0xB8A PUSH2 0xB65 JUMP JUMPDEST POP MOD SWAP1 JUMP JUMPDEST PUSH4 0x4E487B71 PUSH1 0xE0 SHL PUSH1 0x0 MSTORE PUSH1 0x11 PUSH1 0x4 MSTORE PUSH1 0x24 PUSH1 0x0 REVERT JUMPDEST DUP1 DUP3 MUL DUP2 ISZERO DUP3 DUP3 DIV DUP5 EQ OR PUSH2 0x5E5 JUMPI PUSH2 0x5E5 PUSH2 0xB8F JUMP JUMPDEST PUSH1 0x0 DUP3 PUSH2 0xBCB JUMPI PUSH2 0xBCB PUSH2 0xB65 JUMP JUMPDEST POP DIV SWAP1 JUMP JUMPDEST DUP1 DUP3 ADD DUP1 DUP3 GT ISZERO PUSH2 0x5E5 JUMPI PUSH2 0x5E5 PUSH2 0xB8F JUMP JUMPDEST DUP2 DUP2 SUB DUP2 DUP2 GT ISZERO PUSH2 0x5E5 JUMPI PUSH2 0x5E5 PUSH2 0xB8F JUMP JUMPDEST PUSH1 0x0 PUSH1 0x20 DUP3 DUP5 SUB SLT ISZERO PUSH2 0xC08 JUMPI PUSH1 0x0 DUP1 REVERT JUMPDEST POP MLOAD SWAP2 SWAP1 POP JUMP JUMPDEST PUSH1 0x0 PUSH1 0x20 DUP3 DUP5 SUB SLT ISZERO PUSH2 0xC21 JUMPI PUSH1 0x0 DUP1 REVERT JUMPDEST DUP2 MLOAD DUP1 ISZERO ISZERO DUP2 EQ PUSH2 0xB45 JUMPI PUSH1 0x0 DUP1 REVERT INVALID LOG2 PUSH5 0x6970667358 0x22 SLT KECCAK256 0xF DUP7 DUP14 0xDE 0xB6 PUSH21 0xA38368A05ADABE043D3AD22BCFB6B9C8D2365885E8 0xE9 0xC COINBASE 0xAB 0x22 PUSH5 0x736F6C6343 STOP ADDMOD EQ STOP CALLER "},"methodIdentifiers":{"buyShares(uint256)":"d1a93d18","isSaleActive()":"564566a8","owner()":"8da5cb5b","pricePerShare()":"99530b06","propertyToken()":"43ae2695","purchased(address)":"522fe98e","quoteCost(uint256)":"c4213a2e","remainingShares()":"d66c42ec","renounceOwnership()":"715018a6","saleActive()":"68428a1b","saleEndTime()":"ed338ff1","sharesSold()":"192fc516","toggleSale()":"7d8966e4","totalShares()":"3a98ef39","transferOwnership(address)":"f2fde38b","updatePrice(uint256)":"8d6cc56d","withdrawFunds()":"24600fc3"}}}}}