{
  "_format": "hh-sol-artifact-1",
  "contractName": "PropertySale",
  "sourceName": "contracts/PropertySale.sol",
  "abi": [
    {
      "inputs": [
        {
          "internalType": "address",
          "name": "_token",
          "type": "address"
        },
        {
          "internalType": "uint256",
          "name": "_pricePerShare",
          "type": "uint256"
        },
        {
          "internalType": "uint256",
          "name": "_totalShares",
          "type": "uint256"
        },
        {
          "internalType": "uint256",
          "name": "_saleDuration",
          "type": "uint256"
        }
      ],
      "stateMutability": "nonpayable",
      "type": "constructor"
    },
    {
      "anonymous": false,
      "inputs": [
        {
          "indexed": true,
          "internalType": "address",
          "name": "owner",
          "type": "address"
        },
        {
          "indexed": false,
          "internalType": "uint256",
          "name": "amount",
          "type": "uint256"
        }
      ],
      "name": "FundsWithdrawn",
      "type": "event"
    },
    {
      "anonymous": false,
      "inputs": [
        {
          "indexed": true,
          "internalType": "address",
          "name": "previousOwner",
          "type": "address"
        },
        {
          "indexed": true,
          "internalType": "address",
          "name": "newOwner",
          "type": "address"
        }
      ],
      "name": "OwnershipTransferred",
      "type": "event"
    },
    {
      "anonymous": false,
      "inputs": [
        {
          "indexed": false,
          "internalType": "uint256",
          "name": "newPrice",
          "type": "uint256"
        }
      ],
      "name": "PriceUpdated",
      "type": "event"
    },
    {
      "anonymous": false,
      "inputs": [
        {
          "indexed": false,
          "internalType": "bool",
          "name": "active",
          "type": "bool"
        }
      ],
      "name": "SaleStatusChanged",
      "type": "event"
    },
    {
      "anonymous": false,
      "inputs": [
        {
          "indexed": true,
          "internalType": "address",
          "name": "buyer",
          "type": "address"
        },
        {
          "indexed": false,
          "internalType": "uint256",
          "name": "shares",
          "type": "uint256"
        },
        {
          "indexed": false,
          "internalType": "uint256",
          "name": "amount",
          "type": "uint256"
        }
      ],
      "name": "SharesPurchased",
      "type": "event"
    },
    {
      "inputs": [
        {
          "internalType": "uint256",
          "name": "shares",
          "type": "uint256"
        }
      ],
      "name": "buyShares",
      "outputs": [],
      "stateMutability": "payable",
      "type": "function"
    },
    {
      "inputs": [],
      "name": "isSaleActive",
      "outputs": [
        {
          "internalType": "bool",
          "name": "",
          "type": "bool"
        }
      ],
      "stateMutability": "view",
      "type": "function"
    },
    {
      "inputs": [],
      "name": "owner",
      "outputs": [
        {
          "internalType": "address",
          "name": "",
          "type": "address"
        }
      ],
      "stateMutability": "view",
      "type": "function"
    },
    {
      "inputs": [],
      "name": "pricePerShare",
      "outputs": [
        {
          "internalType": "uint256",
          "name": "",
          "type": "uint256"
        }
      ],
      "stateMutability": "view",
      "type": "function"
    },
    {
      "inputs": [],
      "name": "propertyToken",
      "outputs": [
        {
          "internalType": "contract IERC20",
          "name": "",
          "type": "address"
        }
      ],
      "stateMutability": "view",
      "type": "function"
    },
    {
      "inputs": [
        {
          "internalType": "address",
          "name": "",
          "type": "address"
        }
      ],
      "name": "purchased",
      "outputs": [
        {
          "internalType": "uint256",
          "name": "",
          "type": "uint256"
        }
      ],
      "stateMutability": "view",
      "type": "function"
    },
    {
      "inputs": [],
      "name": "remainingShares",
      "outputs": [
        {
          "internalType": "uint256",
          "name": "",
          "type": "uint256"
        }
      ],
      "stateMutability": "view",
      "type": "function"
    },
    {
      "inputs": [],
      "name": "renounceOwnership",
      "outputs": [],
      "stateMutability": "nonpayable",
      "type": "function"
    },
    {
      "inputs": [],
      "name": "saleActive",
      "outputs": [
        {
          "internalType": "bool",
          "name": "",
          "type": "bool"
        }
      ],
      "stateMutability": "view",
      "type": "function"
    },
    {
      "inputs": [],
      "name": "saleEndTime",
      "outputs": [
        {
          "internalType": "uint256",
          "name": "",
          "type": "uint256"
        }
      ],
      "stateMutability": "view",
      "type": "function"
    },
    {
      "inputs": [],
      "name": "sharesSold",
      "outputs": [
        {
          "internalType": "uint256",
          "name": "",
          "type": "uint256"
        }
      ],
      "stateMutability": "view",
      "type": "function"
    },
    {
      "inputs": [],
      "name": "toggleSale",
      "outputs": [],
      "stateMutability": "nonpayable",
      "type": "function"
    },
    {
      "inputs": [],
      "name": "totalShares",
      "outputs": [
        {
          "internalType": "uint256",
          "name": "",
          "type": "uint256"
        }
      ],
      "stateMutability": "view",
      "type": "function"
    },
    {
      "inputs": [
        {
          "internalType": "address",
          "name": "newOwner",
          "type": "address"
        }
      ],
      "name": "transferOwnership",
      "outputs": [],
      "stateMutability": "nonpayable",
      "type": "function"
    },
    {
      "inputs": [
        {
          "internalType": "uint256",
          "name": "newPrice",
          "type": "uint256"
        }
      ],
      "name": "updatePrice",
      "outputs": [],
      "stateMutability": "nonpayable",
      "type": "function"
    },
    {
      "inputs": [],
      "name": "withdrawFunds",
      "outputs": [],
      "stateMutability": "nonpayable",
      "type": "function"
    }
  ],
  "bytecode": "0x608060405234801561001057600080fd5b50604051610df2380380610df283398101604081905261002f916101e2565b61003833610192565b600180556001600160a01b0384166100975760405162461bcd60e51b815260206004820152601560248201527f496e76616c696420746f6b656e2061646472657373000000000000000000000060448201526064015b60405180910390fd5b600083116100e75760405162461bcd60e51b815260206004820152601c60248201527f5072696365206d7573742062652067726561746572207468616e203000000000604482015260640161008e565b600082116101435760405162461bcd60e51b815260206004820152602360248201527f546f74616c20736861726573206d75737420626520677265617465722074686160448201526206e20360ec1b606482015260840161008e565b600280546001600160a01b0319166001600160a01b038616179055600383905560048290556006805460ff19166001179055801561018957610185814261022d565b6007555b50505050610254565b600080546001600160a01b038381166001600160a01b0319831681178455604051919092169283917f8be0079c531659141344cd1fd0a4f28419497f9722a3daafe3b4186f6b6457e09190a35050565b600080600080608085870312156101f857600080fd5b84516001600160a01b038116811461020f57600080fd5b60208601516040870151606090970151919890975090945092505050565b8082018082111561024e57634e487b7160e01b600052601160045260246000fd5b92915050565b610b8f806102636000396000f3fe6080604052600436106100f35760003560e01c80637d8966e41161008a578063d1a93d1811610059578063d1a93d1814610270578063d66c42ec14610283578063ed338ff114610298578063f2fde38b146102ae57600080fd5b80637d8966e4146102075780638d6cc56d1461021c5780638da5cb5b1461023c57806399530b061461025a57600080fd5b8063522fe98e116100c6578063522fe98e14610186578063564566a8146101b357806368428a1b146101d8578063715018a6146101f257600080fd5b8063192fc516146100f857806324600fc3146101215780633a98ef391461013857806343ae26951461014e575b600080fd5b34801561010457600080fd5b5061010e60055481565b6040519081526020015b60405180910390f35b34801561012d57600080fd5b506101366102ce565b005b34801561014457600080fd5b5061010e60045481565b34801561015a57600080fd5b5060025461016e906001600160a01b031681565b6040516001600160a01b039091168152602001610118565b34801561019257600080fd5b5061010e6101a1366004610a73565b60086020526000908152604090205481565b3480156101bf57600080fd5b506101c861041a565b6040519015158152602001610118565b3480156101e457600080fd5b506006546101c89060ff1681565b3480156101fe57600080fd5b50610136610462565b34801561021357600080fd5b50610136610474565b34801561022857600080fd5b50610136610237366004610aa3565b6104c9565b34801561024857600080fd5b506000546001600160a01b031661016e565b34801561026657600080fd5b5061010e60035481565b61013661027e366004610aa3565b61055c565b34801561028f57600080fd5b5061010e6108e3565b3480156102a457600080fd5b5061010e60075481565b3480156102ba57600080fd5b506101366102c9366004610a73565b6108fa565b6102d6610970565b6102de6109ca565b47806103285760405162461bcd60e51b81526020600482015260146024820152734e6f2066756e647320746f20776974686472617760601b60448201526064015b60405180910390fd5b600080546040516001600160a01b039091169083908381818185875af1925050503d8060008114610375576040519150601f19603f3d011682016040523d82523d6000602084013e61037a565b606091505b50509050806103bf5760405162461bcd60e51b815260206004820152601160248201527015da5d1a191c985dd85b0819985a5b1959607a1b604482015260640161031f565b6000546001600160a01b03166001600160a01b03167feaff4b37086828766ad3268786972c0cd24259d4c87a80f9d3963a3c3d999b0d8360405161040591815260200190565b60405180910390a2505061041860018055565b565b60065460009060ff1661042d5750600090565b6000600754118015610440575060075442115b1561044b5750600090565b6004546005541061045c5750600090565b50600190565b61046a610970565b6104186000610a23565b61047c610970565b6006805460ff8082161560ff1990921682179092556040519116151581527ff3637cdf61687bb87179d2da614bc1f4aa93c3cbf40282ccd0a15ecad9184cc19060200160405180910390a1565b6104d1610970565b600081116105215760405162461bcd60e51b815260206004820152601c60248201527f5072696365206d7573742062652067726561746572207468616e203000000000604482015260640161031f565b60038190556040518181527f66cbca4f3c64fecf1dcb9ce094abcf7f68c3450a1d4e3a8e917dd621edb4ebe09060200160405180910390a150565b6105646109ca565b60065460ff166105a85760405162461bcd60e51b815260206004820152600f60248201526e53616c65206e6f742061637469766560881b604482015260640161031f565b600081116105f85760405162461bcd60e51b815260206004820152601e60248201527f4d757374207075726368617365206174206c6561737420312073686172650000604482015260640161031f565b600454816005546106099190610ad2565b11156106575760405162461bcd60e51b815260206004820152601b60248201527f4e6f7420656e6f7567682073686172657320617661696c61626c650000000000604482015260640161031f565b600754156106a2576007544211156106a25760405162461bcd60e51b815260206004820152600e60248201526d14d85b19481a185cc8195b99195960921b604482015260640161031f565b6000670de0b6b3a7640000600354836106bb9190610aeb565b6106c59190610b02565b90508034101561070e5760405162461bcd60e51b8152602060048201526014602482015273125b9cdd59999a58da595b9d081c185e5b595b9d60621b604482015260640161031f565b81600560008282546107209190610ad2565b90915550503360009081526008602052604081208054849290610744908490610ad2565b909155505060025460405163a9059cbb60e01b8152336004820152602481018490526001600160a01b039091169063a9059cbb906044016020604051808303816000875af115801561079a573d6000803e3d6000fd5b505050506040513d601f19601f820116820180604052508101906107be9190610b24565b6108025760405162461bcd60e51b8152602060048201526015602482015274151bdad95b881d1c985b9cd9995c8819985a5b1959605a1b604482015260640161031f565b8034111561089b576000336108178334610b46565b604051600081818185875af1925050503d8060008114610853576040519150601f19603f3d011682016040523d82523d6000602084013e610858565b606091505b50509050806108995760405162461bcd60e51b815260206004820152600d60248201526c1499599d5b990819985a5b1959609a1b604482015260640161031f565b505b604080518381526020810183905233917f630b54f21d1c5ae41c4633ad96e8c15ce15665365eded6a38476ffa71c8ace6c910160405180910390a2506108e060018055565b50565b60006005546004546108f59190610b46565b905090565b610902610970565b6001600160a01b0381166109675760405162461bcd60e51b815260206004820152602660248201527f4f776e61626c653a206e6577206f776e657220697320746865207a65726f206160448201526564647265737360d01b606482015260840161031f565b6108e081610a23565b6000546001600160a01b031633146104185760405162461bcd60e51b815260206004820181905260248201527f4f776e61626c653a2063616c6c6572206973206e6f7420746865206f776e6572604482015260640161031f565b600260015403610a1c5760405162461bcd60e51b815260206004820152601f60248201527f5265656e7472616e637947756172643a207265656e7472616e742063616c6c00604482015260640161031f565b6002600155565b600080546001600160a01b038381166001600160a01b0319831681178455604051919092169283917f8be0079c531659141344cd1fd0a4f28419497f9722a3daafe3b4186f6b6457e09190a35050565b600060208284031215610a8557600080fd5b81356001600160a01b0381168114610a9c57600080fd5b9392505050565b600060208284031215610ab557600080fd5b5035919050565b634e487b7160e01b600052601160045260246000fd5b80820180821115610ae557610ae5610abc565b92915050565b8082028115828204841417610ae557610ae5610abc565b600082610b1f57634e487b7160e01b600052601260045260246000fd5b500490565b600060208284031215610b3657600080fd5b81518015158114610a9c57600080fd5b81810381811115610ae557610ae5610abc56fea26469706673582212200ab7fe566d8a89c4b3422f640c40204b22aba293e8d96f655fce86131f5acc4564736f6c63430008140033",
  "linkReferences": {},
  "deployedLinkReferences": {}
}