{
  "_format": "hh-sol-artifact-1",
  "contractName": "PropertySale",
  "sourceName": "contracts/PropertySale.sol",
  "abi": [
    {
      "inputs": [
        {
          "internalType": "address",
          "name": "_token",
          "type": "address"
        },
        {
          "internalType": "uint256",
          "name": "_pricePerShare",
          "type": "uint256"
        },
        {
          "internalType": "uint256",
          "name": "_totalShares",
          "type": "uint256"
        },
        {
          "internalType": "uint256",
          "name": "_saleDuration",
          "type": "uint256"
        }
      ],
      "stateMutability": "nonpayable",
      "type": "constructor"
    },
    {
      "inputs": [
        {
          "internalType": "uint256",
          "name": "required",
          "type": "uint256"
        },
        {
          "internalType": "uint256",
          "name": "sent",
          "type": "uint256"
        }
      ],
      "name": "InsufficientPayment",
      "type": "error"
    },
    {
      "inputs": [],
      "name": "InvalidShares",
      "type": "error"
    },
    {
      "inputs": [
        {
          "internalType": "uint256",
          "name": "available",
          "type": "uint256"
        },
        {
          "internalType": "uint256",
          "name": "requested",
          "type": "uint256"
        }
      ],
      "name": "InventoryUnavailable",
      "type": "error"
    },
    {
      "inputs": [],
      "name": "SaleEnded",
      "type": "error"
    },
    {
      "inputs": [],
      "name": "SaleNotActive",
      "type": "error"
    },
    {
      "anonymous": false,
      "inputs": [
        {
          "indexed": true,
          "internalType": "address",
          "name": "owner",
          "type": "address"
        },
        {
          "indexed": false,
          "internalType": "uint256",
          "name": "amount",
          "type": "uint256"
        }
      ],
      "name": "FundsWithdrawn",
      "type": "event"
    },
    {
      "anonymous": false,
      "inputs": [
        {
          "indexed": true,
          "internalType": "address",
          "name": "previousOwner",
          "type": "address"
        },
        {
          "indexed": true,
          "internalType": "address",
          "name": "newOwner",
          "type": "address"
        }
      ],
      "name": "OwnershipTransferred",
      "type": "event"
    },
    {
      "anonymous": false,
      "inputs": [
        {
          "indexed": false,
          "internalType": "uint256",
          "name": "newPrice",
          "type": "uint256"
        }
      ],
      "name": "PriceUpdated",
      "type": "event"
    },
    {
      "anonymous": false,
      "inputs": [
        {
          "indexed": false,
          "internalType": "bool",
          "name": "active",
          "type": "bool"
        }
      ],
      "name": "SaleStatusChanged",
      "type": "event"
    },
    {
      "anonymous": false,
      "inputs": [
        {
          "indexed": true,
          "internalType": "address",
          "name": "buyer",
          "type": "address"
        },
        {
          "indexed": false,
          "internalType": "uint256",
          "name": "shares",
          "type": "uint256"
        },
        {
          "indexed": false,
          "internalType": "uint256",
          "name": "amount",
          "type": "uint256"
        }
      ],
      "name": "SharesPurchased",
      "type": "event"
    },
    {
      "inputs": [],
      "name": "HBAR_UNITS",
      "outputs": [
        {
          "internalType": "uint256",
          "name": "",
          "type": "uint256"
        }
      ],
      "stateMutability": "view",
      "type": "function"
    },
    {
      "inputs": [],
      "name": "PROPERTY_TOKEN_UNITS",
      "outputs": [
        {
          "internalType": "uint256",
          "name": "",
          "type": "uint256"
        }
      ],
      "stateMutability": "view",
      "type": "function"
    },
    {
      "inputs": [
        {
          "internalType": "uint256",
          "name": "shares",
          "type": "uint256"
        }
      ],
      "name": "buyShares",
      "outputs": [],
      "stateMutability": "payable",
      "type": "function"
    },
    {
      "inputs": [],
      "name": "isSaleActive",
      "outputs": [
        {
          "internalType": "bool",
          "name": "",
          "type": "bool"
        }
      ],
      "stateMutability": "view",
      "type": "function"
    },
    {
      "inputs": [],
      "name": "owner",
      "outputs": [
        {
          "internalType": "address",
          "name": "",
          "type": "address"
        }
      ],
      "stateMutability": "view",
      "type": "function"
    },
    {
      "inputs": [],
      "name": "pricePerShare",
      "outputs": [
        {
          "internalType": "uint256",
          "name": "",
          "type": "uint256"
        }
      ],
      "stateMutability": "view",
      "type": "function"
    },
    {
      "inputs": [],
      "name": "propertyToken",
      "outputs": [
        {
          "internalType": "contract IERC20",
          "name": "",
          "type": "address"
        }
      ],
      "stateMutability": "view",
      "type": "function"
    },
    {
      "inputs": [
        {
          "internalType": "address",
          "name": "",
          "type": "address"
        }
      ],
      "name": "purchased",
      "outputs": [
        {
          "internalType": "uint256",
          "name": "",
          "type": "uint256"
        }
      ],
      "stateMutability": "view",
      "type": "function"
    },
    {
      "inputs": [
        {
          "internalType": "uint256",
          "name": "shares",
          "type": "uint256"
        }
      ],
      "name": "quoteCost",
      "outputs": [
        {
          "internalType": "uint256",
          "name": "",
          "type": "uint256"
        }
      ],
      "stateMutability": "view",
      "type": "function"
    },
    {
      "inputs": [],
      "name": "remainingShares",
      "outputs": [
        {
          "internalType": "uint256",
          "name": "",
          "type": "uint256"
        }
      ],
      "stateMutability": "view",
      "type": "function"
    },
    {
      "inputs": [],
      "name": "renounceOwnership",
      "outputs": [],
      "stateMutability": "nonpayable",
      "type": "function"
    },
    {
      "inputs": [],
      "name": "saleActive",
      "outputs": [
        {
          "internalType": "bool",
          "name": "",
          "type": "bool"
        }
      ],
      "stateMutability": "view",
      "type": "function"
    },
    {
      "inputs": [],
      "name": "saleEndTime",
      "outputs": [
        {
          "internalType": "uint256",
          "name": "",
          "type": "uint256"
        }
      ],
      "stateMutability": "view",
      "type": "function"
    },
    {
      "inputs": [],
      "name": "sharesSold",
      "outputs": [
        {
          "internalType": "uint256",
          "name": "",
          "type": "uint256"
        }
      ],
      "stateMutability": "view",
      "type": "function"
    },
    {
      "inputs": [],
      "name": "toggleSale",
      "outputs": [],
      "stateMutability": "nonpayable",
      "type": "function"
    },
    {
      "inputs": [],
      "name": "totalShares",
      "outputs": [
        {
          "internalType": "uint256",
          "name": "",
          "type": "uint256"
        }
      ],
      "stateMutability": "view",
      "type": "function"
    },
    {
      "inputs": [
        {
          "internalType": "address",
          "name": "newOwner",
          "type": "address"
        }
      ],
      "name": "transferOwnership",
      "outputs": [],
      "stateMutability": "nonpayable",
      "type": "function"
    },
    {
      "inputs": [
        {
          "internalType": "uint256",
          "name": "newPrice",
          "type": "uint256"
        }
      ],
      "name": "updatePrice",
      "outputs": [],
      "stateMutability": "nonpayable",
      "type": "function"
    },
    {
      "inputs": [],
      "name": "withdrawFunds",
      "outputs": [],
      "stateMutability": "nonpayable",
      "type": "function"
    }
  ],
  "bytecode": "0x60806040523480156200001157600080fd5b5060405162001042380380620010428339810160408190526200003491620002ba565b6200003f336200026a565b600180556001600160a01b0384166200009f5760405162461bcd60e51b815260206004820152601560248201527f496e76616c696420746f6b656e2061646472657373000000000000000000000060448201526064015b60405180910390fd5b60008311620000f15760405162461bcd60e51b815260206004820152601c60248201527f5072696365206d7573742062652067726561746572207468616e203000000000604482015260640162000096565b600082116200014f5760405162461bcd60e51b815260206004820152602360248201527f546f74616c20736861726573206d75737420626520677265617465722074686160448201526206e20360ec1b606482015260840162000096565b62000163670de0b6b3a76400008362000307565b15620001bd5760405162461bcd60e51b815260206004820152602260248201527f746f74616c536861726573206d75737420626520696e20313820646563696d616044820152616c7360f01b606482015260840162000096565b670de0b6b3a7640000821015620002175760405162461bcd60e51b815260206004820152601e60248201527f746f74616c536861726573206d757374206265203e3d203120746f6b656e0000604482015260640162000096565b600280546001600160a01b0319166001600160a01b038616179055600383905560048290556006805460ff19166001179055801562000260576200025c81426200032a565b6007555b5050505062000352565b600080546001600160a01b038381166001600160a01b0319831681178455604051919092169283917f8be0079c531659141344cd1fd0a4f28419497f9722a3daafe3b4186f6b6457e09190a35050565b60008060008060808587031215620002d157600080fd5b84516001600160a01b0381168114620002e957600080fd5b60208601516040870151606090970151919890975090945092505050565b6000826200032557634e487b7160e01b600052601260045260246000fd5b500690565b808201808211156200034c57634e487b7160e01b600052601160045260246000fd5b92915050565b610ce080620003626000396000f3fe6080604052600436106101145760003560e01c80637d8966e4116100a0578063d1a93d1811610064578063d1a93d18146102c9578063d66c42ec146102dc578063ed338ff1146102f1578063ed804c5f14610307578063f2fde38b1461032357600080fd5b80637d8966e4146102405780638d6cc56d146102555780638da5cb5b1461027557806399530b0614610293578063c4213a2e146102a957600080fd5b8063522fe98e116100e7578063522fe98e146101a7578063564566a8146101d457806362ff27f7146101f957806368428a1b14610211578063715018a61461022b57600080fd5b8063192fc5161461011957806324600fc3146101425780633a98ef391461015957806343ae26951461016f575b600080fd5b34801561012557600080fd5b5061012f60055481565b6040519081526020015b60405180910390f35b34801561014e57600080fd5b50610157610343565b005b34801561016557600080fd5b5061012f60045481565b34801561017b57600080fd5b5060025461018f906001600160a01b031681565b6040516001600160a01b039091168152602001610139565b3480156101b357600080fd5b5061012f6101c2366004610b95565b60086020526000908152604090205481565b3480156101e057600080fd5b506101e961048f565b6040519015158152602001610139565b34801561020557600080fd5b5061012f6305f5e10081565b34801561021d57600080fd5b506006546101e99060ff1681565b34801561023757600080fd5b506101576104d7565b34801561024c57600080fd5b506101576104e9565b34801561026157600080fd5b50610157610270366004610bc5565b61053e565b34801561028157600080fd5b506000546001600160a01b031661018f565b34801561029f57600080fd5b5061012f60035481565b3480156102b557600080fd5b5061012f6102c4366004610bc5565b6105d1565b6101576102d7366004610bc5565b61064c565b3480156102e857600080fd5b5061012f610a05565b3480156102fd57600080fd5b5061012f60075481565b34801561031357600080fd5b5061012f670de0b6b3a764000081565b34801561032f57600080fd5b5061015761033e366004610b95565b610a1c565b61034b610a92565b610353610aec565b478061039d5760405162461bcd60e51b81526020600482015260146024820152734e6f2066756e647320746f20776974686472617760601b60448201526064015b60405180910390fd5b600080546040516001600160a01b039091169083908381818185875af1925050503d80600081146103ea576040519150601f19603f3d011682016040523d82523d6000602084013e6103ef565b606091505b50509050806104345760405162461bcd60e51b815260206004820152601160248201527015da5d1a191c985dd85b0819985a5b1959607a1b6044820152606401610394565b6000546001600160a01b03166001600160a01b03167feaff4b37086828766ad3268786972c0cd24259d4c87a80f9d3963a3c3d999b0d8360405161047a91815260200190565b60405180910390a2505061048d60018055565b565b60065460009060ff166104a25750600090565b60006007541180156104b5575060075442115b156104c05750600090565b600454600554106104d15750600090565b50600190565b6104df610a92565b61048d6000610b45565b6104f1610a92565b6006805460ff8082161560ff1990921682179092556040519116151581527ff3637cdf61687bb87179d2da614bc1f4aa93c3cbf40282ccd0a15ecad9184cc19060200160405180910390a1565b610546610a92565b600081116105965760405162461bcd60e51b815260206004820152601c60248201527f5072696365206d7573742062652067726561746572207468616e2030000000006044820152606401610394565b60038190556040518181527f66cbca4f3c64fecf1dcb9ce094abcf7f68c3450a1d4e3a8e917dd621edb4ebe09060200160405180910390a150565b60008115806105f057506105ed670de0b6b3a764000083610bf4565b15155b1561060e57604051636edcc52360e01b815260040160405180910390fd5b6305f5e100610625670de0b6b3a764000080610c1e565b61062f9190610c31565b60035461063c9084610c44565b6106469190610c5b565b92915050565b610654610aec565b60065460ff166106775760405163b7b2409760e01b815260040160405180910390fd5b8015806106945750610691670de0b6b3a764000082610bf4565b15155b156106b257604051636edcc52360e01b815260040160405180910390fd5b60006007541180156106c5575060075442115b156106e357604051630bd8a3eb60e01b815260040160405180910390fd5b600454816005546106f49190610c1e565b111561072e5760055460045461070a9190610c31565b604051631a9363c960e31b8152600481019190915260248101829052604401610394565b6002546040516370a0823160e01b81523060048201526000916001600160a01b0316906370a0823190602401602060405180830381865afa158015610777573d6000803e3d6000fd5b505050506040513d601f19601f8201168201806040525081019061079b9190610c6f565b9050818110156107c857604051631a9363c960e31b81526004810182905260248101839052604401610394565b60006107dc670de0b6b3a764000080610c44565b6305f5e100600354856107ef9190610c44565b6107f99190610c44565b6108039190610c5b565b90508034101561082f5760405163b99e2ab760e01b815234600482015260248101829052604401610394565b82600560008282546108419190610c1e565b90915550503360009081526008602052604081208054859290610865908490610c1e565b909155505060025460405163a9059cbb60e01b8152336004820152602481018590526001600160a01b039091169063a9059cbb906044016020604051808303816000875af11580156108bb573d6000803e3d6000fd5b505050506040513d601f19601f820116820180604052508101906108df9190610c88565b6109235760405162461bcd60e51b8152602060048201526015602482015274151bdad95b881d1c985b9cd9995c8819985a5b1959605a1b6044820152606401610394565b803411156109bc576000336109388334610c31565b604051600081818185875af1925050503d8060008114610974576040519150601f19603f3d011682016040523d82523d6000602084013e610979565b606091505b50509050806109ba5760405162461bcd60e51b815260206004820152600d60248201526c1499599d5b990819985a5b1959609a1b6044820152606401610394565b505b604080518481526020810183905233917f630b54f21d1c5ae41c4633ad96e8c15ce15665365eded6a38476ffa71c8ace6c910160405180910390a25050610a0260018055565b50565b6000600554600454610a179190610c31565b905090565b610a24610a92565b6001600160a01b038116610a895760405162461bcd60e51b815260206004820152602660248201527f4f776e61626c653a206e6577206f776e657220697320746865207a65726f206160448201526564647265737360d01b6064820152608401610394565b610a0281610b45565b6000546001600160a01b0316331461048d5760405162461bcd60e51b815260206004820181905260248201527f4f776e61626c653a2063616c6c6572206973206e6f7420746865206f776e65726044820152606401610394565b600260015403610b3e5760405162461bcd60e51b815260206004820152601f60248201527f5265656e7472616e637947756172643a207265656e7472616e742063616c6c006044820152606401610394565b6002600155565b600080546001600160a01b038381166001600160a01b0319831681178455604051919092169283917f8be0079c531659141344cd1fd0a4f28419497f9722a3daafe3b4186f6b6457e09190a35050565b600060208284031215610ba757600080fd5b81356001600160a01b0381168114610bbe57600080fd5b9392505050565b600060208284031215610bd757600080fd5b5035919050565b634e487b7160e01b600052601260045260246000fd5b600082610c0357610c03610bde565b500690565b634e487b7160e01b600052601160045260246000fd5b8082018082111561064657610646610c08565b8181038181111561064657610646610c08565b808202811582820484141761064657610646610c08565b600082610c6a57610c6a610bde565b500490565b600060208284031215610c8157600080fd5b5051919050565b600060208284031215610c9a57600080fd5b81518015158114610bbe57600080fdfea2646970667358221220a83784353a9f6fb7e227a80972932767e5e2f68eb4019549721084dc6f790d1364736f6c63430008140033",
  "linkReferences": {},
  "deployedLinkReferences": {}
}