{
  "_format": "hh-sol-artifact-1",
  "contractName": "PropertySale",
  "sourceName": "contracts/PropertySale.sol",
  "abi": [
    {
      "inputs": [
        {
          "internalType": "address",
          "name": "_token",
          "type": "address"
        },
        {
          "internalType": "uint256",
          "name": "_pricePerShare",
          "type": "uint256"
        },
        {
          "internalType": "uint256",
          "name": "_totalShares",
          "type": "uint256"
        },
        {
          "internalType": "uint256",
          "name": "_saleDuration",
          "type": "uint256"
        }
      ],
      "stateMutability": "nonpayable",
      "type": "constructor"
    },
    {
      "inputs": [
        {
          "internalType": "uint256",
          "name": "required",
          "type": "uint256"
        },
        {
          "internalType": "uint256",
          "name": "sent",
          "type": "uint256"
        }
      ],
      "name": "InsufficientPayment",
      "type": "error"
    },
    {
      "inputs": [],
      "name": "InvalidShares",
      "type": "error"
    },
    {
      "inputs": [
        {
          "internalType": "uint256",
          "name": "available",
          "type": "uint256"
        },
        {
          "internalType": "uint256",
          "name": "requested",
          "type": "uint256"
        }
      ],
      "name": "InventoryUnavailable",
      "type": "error"
    },
    {
      "inputs": [],
      "name": "SaleEnded",
      "type": "error"
    },
    {
      "inputs": [],
      "name": "SaleNotActive",
      "type": "error"
    },
    {
      "anonymous": false,
      "inputs": [
        {
          "indexed": true,
          "internalType": "address",
          "name": "owner",
          "type": "address"
        },
        {
          "indexed": false,
          "internalType": "uint256",
          "name": "amount",
          "type": "uint256"
        }
      ],
      "name": "FundsWithdrawn",
      "type": "event"
    },
    {
      "anonymous": false,
      "inputs": [
        {
          "indexed": true,
          "internalType": "address",
          "name": "previousOwner",
          "type": "address"
        },
        {
          "indexed": true,
          "internalType": "address",
          "name": "newOwner",
          "type": "address"
        }
      ],
      "name": "OwnershipTransferred",
      "type": "event"
    },
    {
      "anonymous": false,
      "inputs": [
        {
          "indexed": false,
          "internalType": "uint256",
          "name": "newPrice",
          "type": "uint256"
        }
      ],
      "name": "PriceUpdated",
      "type": "event"
    },
    {
      "anonymous": false,
      "inputs": [
        {
          "indexed": false,
          "internalType": "bool",
          "name": "active",
          "type": "bool"
        }
      ],
      "name": "SaleStatusChanged",
      "type": "event"
    },
    {
      "anonymous": false,
      "inputs": [
        {
          "indexed": true,
          "internalType": "address",
          "name": "buyer",
          "type": "address"
        },
        {
          "indexed": false,
          "internalType": "uint256",
          "name": "shares",
          "type": "uint256"
        },
        {
          "indexed": false,
          "internalType": "uint256",
          "name": "amount",
          "type": "uint256"
        }
      ],
      "name": "SharesPurchased",
      "type": "event"
    },
    {
      "inputs": [
        {
          "internalType": "uint256",
          "name": "shares",
          "type": "uint256"
        }
      ],
      "name": "buyShares",
      "outputs": [],
      "stateMutability": "payable",
      "type": "function"
    },
    {
      "inputs": [],
      "name": "isSaleActive",
      "outputs": [
        {
          "internalType": "bool",
          "name": "",
          "type": "bool"
        }
      ],
      "stateMutability": "view",
      "type": "function"
    },
    {
      "inputs": [],
      "name": "owner",
      "outputs": [
        {
          "internalType": "address",
          "name": "",
          "type": "address"
        }
      ],
      "stateMutability": "view",
      "type": "function"
    },
    {
      "inputs": [],
      "name": "pricePerShare",
      "outputs": [
        {
          "internalType": "uint256",
          "name": "",
          "type": "uint256"
        }
      ],
      "stateMutability": "view",
      "type": "function"
    },
    {
      "inputs": [],
      "name": "propertyToken",
      "outputs": [
        {
          "internalType": "contract IERC20",
          "name": "",
          "type": "address"
        }
      ],
      "stateMutability": "view",
      "type": "function"
    },
    {
      "inputs": [
        {
          "internalType": "address",
          "name": "",
          "type": "address"
        }
      ],
      "name": "purchased",
      "outputs": [
        {
          "internalType": "uint256",
          "name": "",
          "type": "uint256"
        }
      ],
      "stateMutability": "view",
      "type": "function"
    },
    {
      "inputs": [
        {
          "internalType": "uint256",
          "name": "shares",
          "type": "uint256"
        }
      ],
      "name": "quoteCost",
      "outputs": [
        {
          "internalType": "uint256",
          "name": "",
          "type": "uint256"
        }
      ],
      "stateMutability": "view",
      "type": "function"
    },
    {
      "inputs": [],
      "name": "remainingShares",
      "outputs": [
        {
          "internalType": "uint256",
          "name": "",
          "type": "uint256"
        }
      ],
      "stateMutability": "view",
      "type": "function"
    },
    {
      "inputs": [],
      "name": "renounceOwnership",
      "outputs": [],
      "stateMutability": "nonpayable",
      "type": "function"
    },
    {
      "inputs": [],
      "name": "saleActive",
      "outputs": [
        {
          "internalType": "bool",
          "name": "",
          "type": "bool"
        }
      ],
      "stateMutability": "view",
      "type": "function"
    },
    {
      "inputs": [],
      "name": "saleEndTime",
      "outputs": [
        {
          "internalType": "uint256",
          "name": "",
          "type": "uint256"
        }
      ],
      "stateMutability": "view",
      "type": "function"
    },
    {
      "inputs": [],
      "name": "sharesSold",
      "outputs": [
        {
          "internalType": "uint256",
          "name": "",
          "type": "uint256"
        }
      ],
      "stateMutability": "view",
      "type": "function"
    },
    {
      "inputs": [],
      "name": "toggleSale",
      "outputs": [],
      "stateMutability": "nonpayable",
      "type": "function"
    },
    {
      "inputs": [],
      "name": "totalShares",
      "outputs": [
        {
          "internalType": "uint256",
          "name": "",
          "type": "uint256"
        }
      ],
      "stateMutability": "view",
      "type": "function"
    },
    {
      "inputs": [
        {
          "internalType": "address",
          "name": "newOwner",
          "type": "address"
        }
      ],
      "name": "transferOwnership",
      "outputs": [],
      "stateMutability": "nonpayable",
      "type": "function"
    },
    {
      "inputs": [
        {
          "internalType": "uint256",
          "name": "newPrice",
          "type": "uint256"
        }
      ],
      "name": "updatePrice",
      "outputs": [],
      "stateMutability": "nonpayable",
      "type": "function"
    },
    {
      "inputs": [],
      "name": "withdrawFunds",
      "outputs": [],
      "stateMutability": "nonpayable",
      "type": "function"
    }
  ],
  "bytecode": "0x60806040523480156200001157600080fd5b5060405162000fc938038062000fc98339810160408190526200003491620002ba565b6200003f336200026a565b600180556001600160a01b0384166200009f5760405162461bcd60e51b815260206004820152601560248201527f496e76616c696420746f6b656e2061646472657373000000000000000000000060448201526064015b60405180910390fd5b60008311620000f15760405162461bcd60e51b815260206004820152601c60248201527f5072696365206d7573742062652067726561746572207468616e203000000000604482015260640162000096565b600082116200014f5760405162461bcd60e51b815260206004820152602360248201527f546f74616c20736861726573206d75737420626520677265617465722074686160448201526206e20360ec1b606482015260840162000096565b62000163670de0b6b3a76400008362000307565b15620001bd5760405162461bcd60e51b815260206004820152602260248201527f746f74616c536861726573206d75737420626520696e20313820646563696d616044820152616c7360f01b606482015260840162000096565b670de0b6b3a7640000821015620002175760405162461bcd60e51b815260206004820152601e60248201527f746f74616c536861726573206d757374206265203e3d203120746f6b656e0000604482015260640162000096565b600280546001600160a01b0319166001600160a01b038616179055600383905560048290556006805460ff19166001179055801562000260576200025c81426200032a565b6007555b5050505062000352565b600080546001600160a01b038381166001600160a01b0319831681178455604051919092169283917f8be0079c531659141344cd1fd0a4f28419497f9722a3daafe3b4186f6b6457e09190a35050565b60008060008060808587031215620002d157600080fd5b84516001600160a01b0381168114620002e957600080fd5b60208601516040870151606090970151919890975090945092505050565b6000826200032557634e487b7160e01b600052601260045260246000fd5b500690565b808201808211156200034c57634e487b7160e01b600052601160045260246000fd5b92915050565b610c6780620003626000396000f3fe6080604052600436106100fe5760003560e01c80637d8966e411610095578063c4213a2e11610064578063c4213a2e1461027b578063d1a93d181461029b578063d66c42ec146102ae578063ed338ff1146102c3578063f2fde38b146102d957600080fd5b80637d8966e4146102125780638d6cc56d146102275780638da5cb5b1461024757806399530b061461026557600080fd5b8063522fe98e116100d1578063522fe98e14610191578063564566a8146101be57806368428a1b146101e3578063715018a6146101fd57600080fd5b8063192fc5161461010357806324600fc31461012c5780633a98ef391461014357806343ae269514610159575b600080fd5b34801561010f57600080fd5b5061011960055481565b6040519081526020015b60405180910390f35b34801561013857600080fd5b506101416102f9565b005b34801561014f57600080fd5b5061011960045481565b34801561016557600080fd5b50600254610179906001600160a01b031681565b6040516001600160a01b039091168152602001610123565b34801561019d57600080fd5b506101196101ac366004610b1c565b60086020526000908152604090205481565b3480156101ca57600080fd5b506101d3610445565b6040519015158152602001610123565b3480156101ef57600080fd5b506006546101d39060ff1681565b34801561020957600080fd5b5061014161048d565b34801561021e57600080fd5b5061014161049f565b34801561023357600080fd5b50610141610242366004610b4c565b6104f4565b34801561025357600080fd5b506000546001600160a01b0316610179565b34801561027157600080fd5b5061011960035481565b34801561028757600080fd5b50610119610296366004610b4c565b610587565b6101416102a9366004610b4c565b6105eb565b3480156102ba57600080fd5b5061011961098c565b3480156102cf57600080fd5b5061011960075481565b3480156102e557600080fd5b506101416102f4366004610b1c565b6109a3565b610301610a19565b610309610a73565b47806103535760405162461bcd60e51b81526020600482015260146024820152734e6f2066756e647320746f20776974686472617760601b60448201526064015b60405180910390fd5b600080546040516001600160a01b039091169083908381818185875af1925050503d80600081146103a0576040519150601f19603f3d011682016040523d82523d6000602084013e6103a5565b606091505b50509050806103ea5760405162461bcd60e51b815260206004820152601160248201527015da5d1a191c985dd85b0819985a5b1959607a1b604482015260640161034a565b6000546001600160a01b03166001600160a01b03167feaff4b37086828766ad3268786972c0cd24259d4c87a80f9d3963a3c3d999b0d8360405161043091815260200190565b60405180910390a2505061044360018055565b565b60065460009060ff166104585750600090565b600060075411801561046b575060075442115b156104765750600090565b600454600554106104875750600090565b50600190565b610495610a19565b6104436000610acc565b6104a7610a19565b6006805460ff8082161560ff1990921682179092556040519116151581527ff3637cdf61687bb87179d2da614bc1f4aa93c3cbf40282ccd0a15ecad9184cc19060200160405180910390a1565b6104fc610a19565b6000811161054c5760405162461bcd60e51b815260206004820152601c60248201527f5072696365206d7573742062652067726561746572207468616e203000000000604482015260640161034a565b60038190556040518181527f66cbca4f3c64fecf1dcb9ce094abcf7f68c3450a1d4e3a8e917dd621edb4ebe09060200160405180910390a150565b60008115806105a657506105a3670de0b6b3a764000083610b7b565b15155b156105c457604051636edcc52360e01b815260040160405180910390fd5b670de0b6b3a7640000600354836105db9190610ba5565b6105e59190610bbc565b92915050565b6105f3610a73565b60065460ff166106165760405163b7b2409760e01b815260040160405180910390fd5b8015806106335750610630670de0b6b3a764000082610b7b565b15155b1561065157604051636edcc52360e01b815260040160405180910390fd5b6000600754118015610664575060075442115b1561068257604051630bd8a3eb60e01b815260040160405180910390fd5b600454816005546106939190610bd0565b11156106cd576005546004546106a99190610be3565b604051631a9363c960e31b815260048101919091526024810182905260440161034a565b6002546040516370a0823160e01b81523060048201526000916001600160a01b0316906370a0823190602401602060405180830381865afa158015610716573d6000803e3d6000fd5b505050506040513d601f19601f8201168201806040525081019061073a9190610bf6565b90508181101561076757604051631a9363c960e31b8152600481018290526024810183905260440161034a565b6000670de0b6b3a7640000600354846107809190610ba5565b61078a9190610bbc565b9050803410156107b65760405163b99e2ab760e01b81526004810182905234602482015260440161034a565b82600560008282546107c89190610bd0565b909155505033600090815260086020526040812080548592906107ec908490610bd0565b909155505060025460405163a9059cbb60e01b8152336004820152602481018590526001600160a01b039091169063a9059cbb906044016020604051808303816000875af1158015610842573d6000803e3d6000fd5b505050506040513d601f19601f820116820180604052508101906108669190610c0f565b6108aa5760405162461bcd60e51b8152602060048201526015602482015274151bdad95b881d1c985b9cd9995c8819985a5b1959605a1b604482015260640161034a565b80341115610943576000336108bf8334610be3565b604051600081818185875af1925050503d80600081146108fb576040519150601f19603f3d011682016040523d82523d6000602084013e610900565b606091505b50509050806109415760405162461bcd60e51b815260206004820152600d60248201526c1499599d5b990819985a5b1959609a1b604482015260640161034a565b505b604080518481526020810183905233917f630b54f21d1c5ae41c4633ad96e8c15ce15665365eded6a38476ffa71c8ace6c910160405180910390a2505061098960018055565b50565b600060055460045461099e9190610be3565b905090565b6109ab610a19565b6001600160a01b038116610a105760405162461bcd60e51b815260206004820152602660248201527f4f776e61626c653a206e6577206f776e657220697320746865207a65726f206160448201526564647265737360d01b606482015260840161034a565b61098981610acc565b6000546001600160a01b031633146104435760405162461bcd60e51b815260206004820181905260248201527f4f776e61626c653a2063616c6c6572206973206e6f7420746865206f776e6572604482015260640161034a565b600260015403610ac55760405162461bcd60e51b815260206004820152601f60248201527f5265656e7472616e637947756172643a207265656e7472616e742063616c6c00604482015260640161034a565b6002600155565b600080546001600160a01b038381166001600160a01b0319831681178455604051919092169283917f8be0079c531659141344cd1fd0a4f28419497f9722a3daafe3b4186f6b6457e09190a35050565b600060208284031215610b2e57600080fd5b81356001600160a01b0381168114610b4557600080fd5b9392505050565b600060208284031215610b5e57600080fd5b5035919050565b634e487b7160e01b600052601260045260246000fd5b600082610b8a57610b8a610b65565b500690565b634e487b7160e01b600052601160045260246000fd5b80820281158282048414176105e5576105e5610b8f565b600082610bcb57610bcb610b65565b500490565b808201808211156105e5576105e5610b8f565b818103818111156105e5576105e5610b8f565b600060208284031215610c0857600080fd5b5051919050565b600060208284031215610c2157600080fd5b81518015158114610b4557600080fdfea26469706673582212200f868ddeb674a38368a05adabe043d3ad22bcfb6b9c8d2365885e8e90c41ab2264736f6c63430008140033",
  "linkReferences": {},
  "deployedLinkReferences": {}
}